{
  "abi": [
    {
      "inputs": [],
      "stateMutability": "nonpayable",
      "type": "constructor"
    },
    {
      "anonymous": false,
      "inputs": [
        {
          "indexed": false,
          "internalType": "bytes32",
          "name": "domainId",
          "type": "bytes32"
        },
        {
          "indexed": false,
          "internalType": "uint256",
          "name": "amount",
          "type": "uint256"
        }
      ],
      "name": "ApprovedToDomain",
      "type": "event"
    },
    {
      "anonymous": false,
      "inputs": [
        {
          "indexed": false,
          "internalType": "address",
          "name": "from",
          "type": "address"
        },
        {
          "indexed": false,
          "internalType": "uint256",
          "name": "amount",
          "type": "uint256"
        }
      ],
      "name": "EtherDeposited",
      "type": "event"
    },
    {
      "anonymous": false,
      "inputs": [
        {
          "indexed": false,
          "internalType": "address",
          "name": "to",
          "type": "address"
        },
        {
          "indexed": false,
          "internalType": "uint256",
          "name": "amount",
          "type": "uint256"
        },
        {
          "indexed": false,
          "internalType": "string",
          "name": "reason",
          "type": "string"
        }
      ],
      "name": "EtherSent",
      "type": "event"
    },
    {
      "anonymous": false,
      "inputs": [
        {
          "indexed": false,
          "internalType": "uint256",
          "name": "proposalId",
          "type": "uint256"
        }
      ],
      "name": "ProposalCanceled",
      "type": "event"
    },
    {
      "anonymous": false,
      "inputs": [
        {
          "indexed": false,
          "internalType": "uint256",
          "name": "proposalId",
          "type": "uint256"
        },
        {
          "indexed": false,
          "internalType": "address",
          "name": "proposer",
          "type": "address"
        },
        {
          "indexed": false,
          "internalType": "address[]",
          "name": "targets",
          "type": "address[]"
        },
        {
          "indexed": false,
          "internalType": "uint256[]",
          "name": "values",
          "type": "uint256[]"
        },
        {
          "indexed": false,
          "internalType": "string[]",
          "name": "signatures",
          "type": "string[]"
        },
        {
          "indexed": false,
          "internalType": "bytes[]",
          "name": "calldatas",
          "type": "bytes[]"
        },
        {
          "indexed": false,
          "internalType": "uint256",
          "name": "startBlock",
          "type": "uint256"
        },
        {
          "indexed": false,
          "internalType": "uint256",
          "name": "endBlock",
          "type": "uint256"
        },
        {
          "indexed": false,
          "internalType": "string",
          "name": "description",
          "type": "string"
        }
      ],
      "name": "ProposalCreated",
      "type": "event"
    },
    {
      "anonymous": false,
      "inputs": [
        {
          "indexed": false,
          "internalType": "uint256",
          "name": "proposalId",
          "type": "uint256"
        }
      ],
      "name": "ProposalExecuted",
      "type": "event"
    },
    {
      "anonymous": false,
      "inputs": [
        {
          "indexed": false,
          "internalType": "uint256",
          "name": "oldProposalThreshold",
          "type": "uint256"
        },
        {
          "indexed": false,
          "internalType": "uint256",
          "name": "newProposalThreshold",
          "type": "uint256"
        }
      ],
      "name": "ProposalThresholdSet",
      "type": "event"
    },
    {
      "anonymous": false,
      "inputs": [
        {
          "indexed": false,
          "internalType": "bytes32",
          "name": "domainId",
          "type": "bytes32"
        }
      ],
      "name": "RevokedDomainAllowance",
      "type": "event"
    },
    {
      "anonymous": false,
      "inputs": [
        {
          "indexed": true,
          "internalType": "address",
          "name": "voter",
          "type": "address"
        },
        {
          "indexed": false,
          "internalType": "uint256",
          "name": "proposalId",
          "type": "uint256"
        },
        {
          "indexed": false,
          "internalType": "uint8",
          "name": "support",
          "type": "uint8"
        },
        {
          "indexed": false,
          "internalType": "uint256",
          "name": "weight",
          "type": "uint256"
        },
        {
          "indexed": false,
          "internalType": "string",
          "name": "reason",
          "type": "string"
        }
      ],
      "name": "VoteCast",
      "type": "event"
    },
    {
      "anonymous": false,
      "inputs": [
        {
          "indexed": false,
          "internalType": "uint256",
          "name": "oldVotingDelay",
          "type": "uint256"
        },
        {
          "indexed": false,
          "internalType": "uint256",
          "name": "newVotingDelay",
          "type": "uint256"
        }
      ],
      "name": "VotingDelaySet",
      "type": "event"
    },
    {
      "anonymous": false,
      "inputs": [
        {
          "indexed": false,
          "internalType": "uint256",
          "name": "oldVotingPeriod",
          "type": "uint256"
        },
        {
          "indexed": false,
          "internalType": "uint256",
          "name": "newVotingPeriod",
          "type": "uint256"
        }
      ],
      "name": "VotingPeriodSet",
      "type": "event"
    },
    {
      "inputs": [
        {
          "internalType": "bytes32",
          "name": "",
          "type": "bytes32"
        }
      ],
      "name": "_domainAllowances",
      "outputs": [
        {
          "internalType": "uint256",
          "name": "",
          "type": "uint256"
        }
      ],
      "stateMutability": "view",
      "type": "function"
    },
    {
      "inputs": [
        {
          "internalType": "bytes32",
          "name": "domainId",
          "type": "bytes32"
        },
        {
          "internalType": "uint256",
          "name": "amount",
          "type": "uint256"
        }
      ],
      "name": "approveToDomain",
      "outputs": [],
      "stateMutability": "nonpayable",
      "type": "function"
    },
    {
      "inputs": [
        {
          "internalType": "uint256",
          "name": "proposalId",
          "type": "uint256"
        },
        {
          "internalType": "uint8",
          "name": "support",
          "type": "uint8"
        },
        {
          "internalType": "string",
          "name": "reason",
          "type": "string"
        }
      ],
      "name": "castVote",
      "outputs": [
        {
          "internalType": "uint256",
          "name": "",
          "type": "uint256"
        }
      ],
      "stateMutability": "nonpayable",
      "type": "function"
    },
    {
      "inputs": [
        {
          "internalType": "bytes32",
          "name": "domainId",
          "type": "bytes32"
        },
        {
          "internalType": "uint256[]",
          "name": "values",
          "type": "uint256[]"
        }
      ],
      "name": "checkDomainAllowance",
      "outputs": [
        {
          "internalType": "bool",
          "name": "",
          "type": "bool"
        }
      ],
      "stateMutability": "view",
      "type": "function"
    },
    {
      "inputs": [
        {
          "internalType": "address[]",
          "name": "targets",
          "type": "address[]"
        },
        {
          "internalType": "uint256[]",
          "name": "values",
          "type": "uint256[]"
        },
        {
          "internalType": "bytes[]",
          "name": "calldatas",
          "type": "bytes[]"
        },
        {
          "internalType": "bytes32",
          "name": "descriptionHash",
          "type": "bytes32"
        }
      ],
      "name": "execute",
      "outputs": [
        {
          "internalType": "uint256",
          "name": "",
          "type": "uint256"
        }
      ],
      "stateMutability": "payable",
      "type": "function"
    },
    {
      "inputs": [
        {
          "internalType": "bytes32",
          "name": "domainId",
          "type": "bytes32"
        }
      ],
      "name": "getDomainAllowance",
      "outputs": [
        {
          "internalType": "uint256",
          "name": "",
          "type": "uint256"
        }
      ],
      "stateMutability": "view",
      "type": "function"
    },
    {
      "inputs": [
        {
          "internalType": "uint256",
          "name": "proposalId",
          "type": "uint256"
        }
      ],
      "name": "getProposalDomain",
      "outputs": [
        {
          "internalType": "bytes32",
          "name": "",
          "type": "bytes32"
        }
      ],
      "stateMutability": "view",
      "type": "function"
    },
    {
      "inputs": [],
      "name": "getWalletBalance",
      "outputs": [
        {
          "internalType": "uint256",
          "name": "",
          "type": "uint256"
        }
      ],
      "stateMutability": "view",
      "type": "function"
    },
    {
      "inputs": [
        {
          "internalType": "uint256",
          "name": "proposalId",
          "type": "uint256"
        },
        {
          "internalType": "address",
          "name": "account",
          "type": "address"
        }
      ],
      "name": "hasVoted",
      "outputs": [
        {
          "internalType": "bool",
          "name": "",
          "type": "bool"
        }
      ],
      "stateMutability": "view",
      "type": "function"
    },
    {
      "inputs": [
        {
          "internalType": "address[]",
          "name": "targets",
          "type": "address[]"
        },
        {
          "internalType": "uint256[]",
          "name": "values",
          "type": "uint256[]"
        },
        {
          "internalType": "bytes[]",
          "name": "calldatas",
          "type": "bytes[]"
        },
        {
          "internalType": "bytes32",
          "name": "descriptionHash",
          "type": "bytes32"
        }
      ],
      "name": "hashProposal",
      "outputs": [
        {
          "internalType": "uint256",
          "name": "",
          "type": "uint256"
        }
      ],
      "stateMutability": "pure",
      "type": "function"
    },
    {
      "inputs": [
        {
          "internalType": "address",
          "name": "managerAddress",
          "type": "address"
        }
      ],
      "name": "init",
      "outputs": [],
      "stateMutability": "nonpayable",
      "type": "function"
    },
    {
      "inputs": [],
      "name": "manager",
      "outputs": [
        {
          "internalType": "contract ISBRTManager",
          "name": "",
          "type": "address"
        }
      ],
      "stateMutability": "view",
      "type": "function"
    },
    {
      "inputs": [],
      "name": "name",
      "outputs": [
        {
          "internalType": "string",
          "name": "",
          "type": "string"
        }
      ],
      "stateMutability": "view",
      "type": "function"
    },
    {
      "inputs": [
        {
          "internalType": "uint256",
          "name": "proposalId",
          "type": "uint256"
        }
      ],
      "name": "proposalDeadline",
      "outputs": [
        {
          "internalType": "uint256",
          "name": "",
          "type": "uint256"
        }
      ],
      "stateMutability": "view",
      "type": "function"
    },
    {
      "inputs": [
        {
          "internalType": "uint256",
          "name": "proposalId",
          "type": "uint256"
        }
      ],
      "name": "proposalSnapshot",
      "outputs": [
        {
          "internalType": "uint256",
          "name": "",
          "type": "uint256"
        }
      ],
      "stateMutability": "view",
      "type": "function"
    },
    {
      "inputs": [],
      "name": "proposalThreshold",
      "outputs": [
        {
          "internalType": "uint256",
          "name": "",
          "type": "uint256"
        }
      ],
      "stateMutability": "view",
      "type": "function"
    },
    {
      "inputs": [
        {
          "internalType": "uint256",
          "name": "proposalId",
          "type": "uint256"
        }
      ],
      "name": "proposalVotes",
      "outputs": [
        {
          "internalType": "uint256",
          "name": "againstVotes",
          "type": "uint256"
        },
        {
          "internalType": "uint256",
          "name": "forVotes",
          "type": "uint256"
        },
        {
          "internalType": "uint256",
          "name": "abstainVotes",
          "type": "uint256"
        }
      ],
      "stateMutability": "view",
      "type": "function"
    },
    {
      "inputs": [
        {
          "internalType": "bytes32",
          "name": "domainId",
          "type": "bytes32"
        },
        {
          "internalType": "address[]",
          "name": "targets",
          "type": "address[]"
        },
        {
          "internalType": "uint256[]",
          "name": "values",
          "type": "uint256[]"
        },
        {
          "internalType": "bytes[]",
          "name": "calldatas",
          "type": "bytes[]"
        },
        {
          "internalType": "string",
          "name": "description",
          "type": "string"
        }
      ],
      "name": "propose",
      "outputs": [
        {
          "internalType": "uint256",
          "name": "",
          "type": "uint256"
        }
      ],
      "stateMutability": "nonpayable",
      "type": "function"
    },
    {
      "inputs": [
        {
          "internalType": "bytes32",
          "name": "domainId",
          "type": "bytes32"
        }
      ],
      "name": "revokeDomainAllowance",
      "outputs": [],
      "stateMutability": "nonpayable",
      "type": "function"
    },
    {
      "inputs": [
        {
          "internalType": "uint256",
          "name": "newProposalThreshold",
          "type": "uint256"
        }
      ],
      "name": "setProposalThreshold",
      "outputs": [],
      "stateMutability": "nonpayable",
      "type": "function"
    },
    {
      "inputs": [
        {
          "internalType": "uint256",
          "name": "newVotingDelay",
          "type": "uint256"
        }
      ],
      "name": "setVotingDelay",
      "outputs": [],
      "stateMutability": "nonpayable",
      "type": "function"
    },
    {
      "inputs": [
        {
          "internalType": "uint256",
          "name": "newVotingPeriod",
          "type": "uint256"
        }
      ],
      "name": "setVotingPeriod",
      "outputs": [],
      "stateMutability": "nonpayable",
      "type": "function"
    },
    {
      "inputs": [
        {
          "internalType": "uint256",
          "name": "proposalId",
          "type": "uint256"
        }
      ],
      "name": "state",
      "outputs": [
        {
          "internalType": "enum IGovernorNPO.ProposalState",
          "name": "",
          "type": "uint8"
        }
      ],
      "stateMutability": "view",
      "type": "function"
    },
    {
      "inputs": [],
      "name": "votingDelay",
      "outputs": [
        {
          "internalType": "uint256",
          "name": "",
          "type": "uint256"
        }
      ],
      "stateMutability": "view",
      "type": "function"
    },
    {
      "inputs": [],
      "name": "votingPeriod",
      "outputs": [
        {
          "internalType": "uint256",
          "name": "",
          "type": "uint256"
        }
      ],
      "stateMutability": "view",
      "type": "function"
    },
    {
      "stateMutability": "payable",
      "type": "receive"
    }
  ],
  "bytecode": {
    "object": "0x6004805460ff60a01b1916905560c0604052600b60809081526a476f7665726e6f724e504f60a81b60a05260059062000039908262000247565b503480156200004757600080fd5b50614cb461b2fa60646200005b836200007a565b6200006682620000bb565b620000718162000161565b50505062000313565b60005460408051918252602082018390527fc565b045403dc03c2eea82b81a0465edad9e2e7fc4d97e11421c209da93d7a93910160405180910390a1600055565b60008111620001205760405162461bcd60e51b815260206004820152602760248201527f476f7665726e6f7253657474696e67733a20766f74696e6720706572696f6420604482015266746f6f206c6f7760c81b606482015260840160405180910390fd5b60015460408051918252602082018390527f7e3f7f0708a84de9203036abaa450dccc85ad5ff52f78c170f3edb55cf5e8828910160405180910390a1600155565b60025460408051918252602082018390527fccb45da8d5717e6c4544694297c4ba5cf151d455c9bb0ed4fc7a38411bc05461910160405180910390a1600255565b634e487b7160e01b600052604160045260246000fd5b600181811c90821680620001cd57607f821691505b602082108103620001ee57634e487b7160e01b600052602260045260246000fd5b50919050565b601f8211156200024257600081815260208120601f850160051c810160208610156200021d5750805b601f850160051c820191505b818110156200023e5782815560010162000229565b5050505b505050565b81516001600160401b03811115620002635762000263620001a2565b6200027b81620002748454620001b8565b84620001f4565b602080601f831160018114620002b357600084156200029a5750858301515b600019600386901b1c1916600185901b1785556200023e565b600085815260208120601f198616915b82811015620002e457888601518255948401946001909101908401620002c3565b5085821015620003035787850151600019600388901b60f8161c191681555b5050505050600190811b01905550565b61275480620003236000396000f3fe60806040526004361061019a5760003560e01c8063470b7622116100e1578063b58131b01161008a578063c59057e411610064578063c59057e41461055c578063d2c37a921461057c578063ea0217cf1461059c578063ece40cc1146105bc57600080fd5b8063b58131b014610507578063c01f9e371461051c578063c24d21ed1461053c57600080fd5b80635aed550c116100bb5780635aed550c1461048d57806370b0f660146104ba5780638ed140bd146104da57600080fd5b8063470b7622146103be578063481c6a75146103de578063544ffc9c1461043057600080fd5b80632656227d116101435780633932abb11161011d5780633932abb1146103255780633e4f49e61461033a578063438596321461036757600080fd5b80632656227d146102df5780632d63f693146102f2578063329a27e71461031257600080fd5b8063160cc61b11610174578063160cc61b1461027257806319a642621461029f57806319ab453c146102bf57600080fd5b806302a251a3146101fc578063055d34631461022057806306fdde031461025057600080fd5b366101f75734156101f5577f939e51ac2fd009b158d6344f7e68a83d8d18d9b0cc88cf514aac6aaa9cad2a18336040805173ffffffffffffffffffffffffffffffffffffffff90921682523460208301520160405180910390a15b005b600080fd5b34801561020857600080fd5b506001545b6040519081526020015b60405180910390f35b34801561022c57600080fd5b5061024061023b366004611dc0565b6105dc565b6040519015158152602001610217565b34801561025c57600080fd5b5061026561064c565b6040516102179190611e81565b34801561027e57600080fd5b5061020d61028d366004611e94565b60009081526003602052604090205490565b3480156102ab57600080fd5b5061020d6102ba366004612063565b6106de565b3480156102cb57600080fd5b506101f56102da36600461211a565b610c61565b61020d6102ed366004612135565b610d43565b3480156102fe57600080fd5b5061020d61030d366004611e94565b610f85565b34801561031e57600080fd5b504761020d565b34801561033157600080fd5b5060005461020d565b34801561034657600080fd5b5061035a610355366004611e94565b610fc1565b60405161021791906121f4565b34801561037357600080fd5b50610240610382366004612235565b600082815260066020908152604080832073ffffffffffffffffffffffffffffffffffffffff8516845260070190915290205460ff1692915050565b3480156103ca57600080fd5b5061020d6103d9366004612261565b6110dc565b3480156103ea57600080fd5b5060045461040b9073ffffffffffffffffffffffffffffffffffffffff1681565b60405173ffffffffffffffffffffffffffffffffffffffff9091168152602001610217565b34801561043c57600080fd5b5061047261044b366004611e94565b60008181526006602081905260409091206004810154600582015491909201549193909250565b60408051938452602084019290925290820152606001610217565b34801561049957600080fd5b5061020d6104a8366004611e94565b60036020526000908152604090205481565b3480156104c657600080fd5b506101f56104d5366004611e94565b6116e4565b3480156104e657600080fd5b5061020d6104f5366004611e94565b60009081526006602052604090205490565b34801561051357600080fd5b5060025461020d565b34801561052857600080fd5b5061020d610537366004611e94565b6116fc565b34801561054857600080fd5b506101f5610557366004611e94565b61172c565b34801561056857600080fd5b5061020d610577366004612135565b611809565b34801561058857600080fd5b506101f56105973660046122c0565b611861565b3480156105a857600080fd5b506101f56105b7366004611e94565b61193f565b3480156105c857600080fd5b506101f56105d7366004611e94565b611954565b6000826105eb57506001610646565b6000805b83518110156106315783818151811061060a5761060a6122e2565b60200260200101518261061d9190612340565b91508061062981612358565b9150506105ef565b50600084815260036020526040902054101590505b92915050565b60606005805461065b90612390565b80601f016020809104026020016040519081016040528092919081815260200182805461068790612390565b80156106d45780601f106106a9576101008083540402835291602001916106d4565b820191906000526020600020905b8154815290600101906020018083116106b757829003601f168201915b5050505050905090565b60025460009033906106f08289611969565b1015610783576040517f08c379a000000000000000000000000000000000000000000000000000000000815260206004820152602a60248201527f476f7665726e6f724e504f3a20766f7465732062656c6f772070726f706f736160448201527f6c7468726573686f6c640000000000000000000000000000000000000000000060648201526084015b60405180910390fd5b8451865114610813576040517f08c379a0000000000000000000000000000000000000000000000000000000008152602060048201526024808201527f476f7665726e6f724e504f3a20696e76616c69642070726f706f73616c206c6560448201527f6e67746800000000000000000000000000000000000000000000000000000000606482015260840161077a565b83518651146108a3576040517f08c379a0000000000000000000000000000000000000000000000000000000008152602060048201526024808201527f476f7665726e6f724e504f3a20696e76616c69642070726f706f73616c206c6560448201527f6e67746800000000000000000000000000000000000000000000000000000000606482015260840161077a565b6040517f055d3463000000000000000000000000000000000000000000000000000000008152309063055d3463906108e1908a90899060040161241e565b602060405180830381865afa1580156108fe573d6000803e3d6000fd5b505050506040513d601f19601f82011682018060405250810190610922919061243f565b6109ae576040517f08c379a000000000000000000000000000000000000000000000000000000000815260206004820152602a60248201527f476f7665726e6f724e504f3a20696e73756666696369656e7420646f6d61696e60448201527f20616c6c6f77616e636500000000000000000000000000000000000000000000606482015260840161077a565b60006109c38787878780519060200120611809565b6000818152600660209081526040918290208251918201909252600182015467ffffffffffffffff16908190529192509015610a80576040517f08c379a0000000000000000000000000000000000000000000000000000000008152602060048201526024808201527f476f7665726e6f724e504f3a2070726f706f73616c20616c726561647920657860448201527f6973747300000000000000000000000000000000000000000000000000000000606482015260840161077a565b6000610a93610a8e60005490565b611a6f565b610a9c43611a6f565b610aa69190612461565b90506000610ab6610a8e60015490565b610ac09083612461565b6001840180547fffffffffffffffffffffffffffffffffffffffffffffffff00000000000000001667ffffffffffffffff851617905590506002830180547fffffffffffffffffffffffffffffffffffffffffffffffff00000000000000001667ffffffffffffffff83161790558a83600001819055507f7d84a6263ae0d98d3329bd7b46bb4e8d6f98cd35a7adb45c274c8b7fd5ebd5e084868c8c8e5167ffffffffffffffff811115610b7657610b76611cb3565b604051908082528060200260200182016040528015610ba957816020015b6060815260200190600190039081610b945790505b508d88888f604051610bc399989796959493929190612525565b60405180910390a1600480546040517ff9c6a02c00000000000000000000000000000000000000000000000000000000815273ffffffffffffffffffffffffffffffffffffffff8881169382019390935291169063f9c6a02c90602401600060405180830381600087803b158015610c3a57600080fd5b505af1158015610c4e573d6000803e3d6000fd5b50959d9c50505050505050505050505050565b60045474010000000000000000000000000000000000000000900460ff1615610ce6576040517f08c379a000000000000000000000000000000000000000000000000000000000815260206004820181905260248201527f546869732066756e6374696f6e2077617320616c72656164792063616c6c6564604482015260640161077a565b600480547fffffffffffffffffffffff0000000000000000000000000000000000000000001673ffffffffffffffffffffffffffffffffffffffff9092169190911774010000000000000000000000000000000000000000179055565b600080610d5286868686611809565b90506000610d5f82610fc1565b90506004816007811115610d7557610d756121c5565b14610e01576040517f08c379a0000000000000000000000000000000000000000000000000000000008152602060048201526024808201527f476f7665726e6f724e504f3a2070726f706f73616c206e6f742073756363657360448201527f7366756c00000000000000000000000000000000000000000000000000000000606482015260840161077a565b6000828152600660205260409081902060030180547fffffffffffffffffffffffffffffffffffffffffffffffffffffffffffffff00166001179055517f712ae1383f79ac853f8d882153778e0260ef8f03b504e2866e0593e04d2b291f90610e6d9084815260200190565b60405180910390a160006040518060600160405280602a81526020016126f5602a9139905060005b8851811015610f78576000808a8381518110610eb357610eb36122e2565b602002602001015173ffffffffffffffffffffffffffffffffffffffff168a8481518110610ee357610ee36122e2565b60200260200101518a8581518110610efd57610efd6122e2565b6020026020010151604051610f129190612642565b60006040518083038185875af1925050503d8060008114610f4f576040519150601f19603f3d011682016040523d82523d6000602084013e610f54565b606091505b5091509150610f64828286611b0d565b50505080610f7190612358565b9050610e95565b5091979650505050505050565b600081815260066020908152604080832081519283019091526001015467ffffffffffffffff16908190525b67ffffffffffffffff1692915050565b6000818152600660205260408120600381015460ff1615610fe55750600792915050565b6003810154610100900460ff16156110005750600292915050565b600061100b84610f85565b905080600003611077576040517f08c379a000000000000000000000000000000000000000000000000000000000815260206004820152601d60248201527f476f7665726e6f723a20756e6b6e6f776e2070726f706f73616c206964000000604482015260640161077a565b438110611088575060009392505050565b6000611093856116fc565b90504381106110a757506001949350505050565b6000858152600660205260409020600481015460059091015411156110d157506004949350505050565b506003949350505050565b600060016110e985610fc1565b60078111156110fa576110fa6121c5565b14611187576040517f08c379a000000000000000000000000000000000000000000000000000000000815260206004820152602660248201527f476f7665726e6f724e504f3a20766f7465206e6f742063757272656e746c792060448201527f6163746976650000000000000000000000000000000000000000000000000000606482015260840161077a565b6000848152600660209081526040808320338085526007820190935292205490919060ff1615611213576040517f08c379a000000000000000000000000000000000000000000000000000000000815260206004820152601e60248201527f476f7665726e6f724e504f3a20766f746520616c726561647920636173740000604482015260640161077a565b80546000906112b957600480546040517f9ab24eb000000000000000000000000000000000000000000000000000000000815273ffffffffffffffffffffffffffffffffffffffff86811693820193909352911690639ab24eb090602401602060405180830381865afa15801561128e573d6000803e3d6000fd5b505050506040513d601f19601f820116820180604052508101906112b2919061265e565b9050611481565b6004805483546040517f91d148540000000000000000000000000000000000000000000000000000000081529283015273ffffffffffffffffffffffffffffffffffffffff858116602484015216906391d1485490604401602060405180830381865afa15801561132e573d6000803e3d6000fd5b505050506040513d601f19601f82011682018060405250810190611352919061243f565b6113de576040517f08c379a000000000000000000000000000000000000000000000000000000000815260206004820152603060248201527f476f7665726e6f724e504f3a20766f746572206973206e6f742061206d656d6260448201527f6572206f662074686520646f6d61696e00000000000000000000000000000000606482015260840161077a565b6004805483546040517fa8bd3bac00000000000000000000000000000000000000000000000000000000815273ffffffffffffffffffffffffffffffffffffffff87811694820194909452602481019190915291169063a8bd3bac90604401602060405180830381865afa15801561145a573d6000803e3d6000fd5b505050506040513d601f19601f8201168201806040525081019061147e919061265e565b90505b73ffffffffffffffffffffffffffffffffffffffff83166000908152600783016020526040902080547fffffffffffffffffffffffffffffffffffffffffffffffffffffffffffffff0016600117905560ff86166114f857808260040160008282546114ed9190612340565b909155506115fc9050565b7fffffffffffffffffffffffffffffffffffffffffffffffffffffffffffffffff60ff87160161153657808260050160008282546114ed9190612340565b7ffffffffffffffffffffffffffffffffffffffffffffffffffffffffffffffffe60ff87160161157457808260060160008282546114ed9190612340565b6040517f08c379a000000000000000000000000000000000000000000000000000000000815260206004820152602c60248201527f476f7665726e6f724e504f3a20696e76616c69642076616c756520666f72206560448201527f6e756d20566f7465547970650000000000000000000000000000000000000000606482015260840161077a565b8273ffffffffffffffffffffffffffffffffffffffff167fb8e138887d0aa13bab447e82de9d5c1777041ecd21ca36ba824ff1e6c07ddda4888884896040516116489493929190612677565b60405180910390a2600480546040517f276480ae00000000000000000000000000000000000000000000000000000000815273ffffffffffffffffffffffffffffffffffffffff8681169382019390935291169063276480ae90602401600060405180830381600087803b1580156116bf57600080fd5b505af11580156116d3573d6000803e3d6000fd5b5092955050505050505b9392505050565b3330146116f057600080fd5b6116f981611b60565b50565b600081815260066020908152604080832081519283019091526002015467ffffffffffffffff1690819052610fb1565b3330146117bb576040517f08c379a000000000000000000000000000000000000000000000000000000000815260206004820152602b60248201527f547265617375727957616c6c65743a206f6e6c79206f776e65722063616e207260448201527f65766f6b652066756e6473000000000000000000000000000000000000000000606482015260840161077a565b60008181526003602052604080822091909155517f51f7e33b041f50935581d7b352dd08f668753d98b3e65e3d32626545d684315b906117fe9083815260200190565b60405180910390a150565b60008484848460405160200161182294939291906126a9565b604080517fffffffffffffffffffffffffffffffffffffffffffffffffffffffffffffffe0818403018152919052805160209091012095945050505050565b3330146118f0576040517f08c379a000000000000000000000000000000000000000000000000000000000815260206004820152602c60248201527f547265617375727957616c6c65743a206f6e6c79206f776e65722063616e206160448201527f7070726f76652066756e64730000000000000000000000000000000000000000606482015260840161077a565b60008281526003602090815260409182902083905581518481529081018390527f014eca9786705b40977616f1dede4a30dead15a249a13693d81edfb1b165792e910160405180910390a15050565b33301461194b57600080fd5b6116f981611ba1565b33301461196057600080fd5b6116f981611c72565b600081611a0e57600480546040517f9ab24eb000000000000000000000000000000000000000000000000000000000815273ffffffffffffffffffffffffffffffffffffffff86811693820193909352911690639ab24eb0906024015b602060405180830381865afa1580156119e3573d6000803e3d6000fd5b505050506040513d601f19601f82011682018060405250810190611a07919061265e565b9050610646565b600480546040517fa8bd3bac00000000000000000000000000000000000000000000000000000000815273ffffffffffffffffffffffffffffffffffffffff868116938201939093526024810185905291169063a8bd3bac906044016119c6565b600067ffffffffffffffff821115611b09576040517f08c379a000000000000000000000000000000000000000000000000000000000815260206004820152602660248201527f53616665436173743a2076616c756520646f65736e27742066697420696e203660448201527f3420626974730000000000000000000000000000000000000000000000000000606482015260840161077a565b5090565b60608315611b1c5750816116dd565b825115611b2c5782518084602001fd5b816040517f08c379a000000000000000000000000000000000000000000000000000000000815260040161077a9190611e81565b60005460408051918252602082018390527fc565b045403dc03c2eea82b81a0465edad9e2e7fc4d97e11421c209da93d7a93910160405180910390a1600055565b60008111611c31576040517f08c379a000000000000000000000000000000000000000000000000000000000815260206004820152602760248201527f476f7665726e6f7253657474696e67733a20766f74696e6720706572696f642060448201527f746f6f206c6f7700000000000000000000000000000000000000000000000000606482015260840161077a565b60015460408051918252602082018390527f7e3f7f0708a84de9203036abaa450dccc85ad5ff52f78c170f3edb55cf5e8828910160405180910390a1600155565b60025460408051918252602082018390527fccb45da8d5717e6c4544694297c4ba5cf151d455c9bb0ed4fc7a38411bc05461910160405180910390a1600255565b7f4e487b7100000000000000000000000000000000000000000000000000000000600052604160045260246000fd5b604051601f82017fffffffffffffffffffffffffffffffffffffffffffffffffffffffffffffffe016810167ffffffffffffffff81118282101715611d2957611d29611cb3565b604052919050565b600067ffffffffffffffff821115611d4b57611d4b611cb3565b5060051b60200190565b600082601f830112611d6657600080fd5b81356020611d7b611d7683611d31565b611ce2565b82815260059290921b84018101918181019086841115611d9a57600080fd5b8286015b84811015611db55780358352918301918301611d9e565b509695505050505050565b60008060408385031215611dd357600080fd5b82359150602083013567ffffffffffffffff811115611df157600080fd5b611dfd85828601611d55565b9150509250929050565b60005b83811015611e22578181015183820152602001611e0a565b83811115611e31576000848401525b50505050565b60008151808452611e4f816020860160208601611e07565b601f017fffffffffffffffffffffffffffffffffffffffffffffffffffffffffffffffe0169290920160200192915050565b6020815260006116dd6020830184611e37565b600060208284031215611ea657600080fd5b5035919050565b803573ffffffffffffffffffffffffffffffffffffffff81168114611ed157600080fd5b919050565b600082601f830112611ee757600080fd5b81356020611ef7611d7683611d31565b82815260059290921b84018101918181019086841115611f1657600080fd5b8286015b84811015611db557611f2b81611ead565b8352918301918301611f1a565b600067ffffffffffffffff831115611f5257611f52611cb3565b611f8360207fffffffffffffffffffffffffffffffffffffffffffffffffffffffffffffffe0601f86011601611ce2565b9050828152838383011115611f9757600080fd5b828260208301376000602084830101529392505050565b600082601f830112611fbf57600080fd5b81356020611fcf611d7683611d31565b82815260059290921b84018101918181019086841115611fee57600080fd5b8286015b84811015611db557803567ffffffffffffffff8111156120125760008081fd5b8701603f810189136120245760008081fd5b612035898683013560408401611f38565b845250918301918301611ff2565b600082601f83011261205457600080fd5b6116dd83833560208501611f38565b600080600080600060a0868803121561207b57600080fd5b85359450602086013567ffffffffffffffff8082111561209a57600080fd5b6120a689838a01611ed6565b955060408801359150808211156120bc57600080fd5b6120c889838a01611d55565b945060608801359150808211156120de57600080fd5b6120ea89838a01611fae565b9350608088013591508082111561210057600080fd5b5061210d88828901612043565b9150509295509295909350565b60006020828403121561212c57600080fd5b6116dd82611ead565b6000806000806080858703121561214b57600080fd5b843567ffffffffffffffff8082111561216357600080fd5b61216f88838901611ed6565b9550602087013591508082111561218557600080fd5b61219188838901611d55565b945060408701359150808211156121a757600080fd5b506121b487828801611fae565b949793965093946060013593505050565b7f4e487b7100000000000000000000000000000000000000000000000000000000600052602160045260246000fd5b602081016008831061222f577f4e487b7100000000000000000000000000000000000000000000000000000000600052602160045260246000fd5b91905290565b6000806040838503121561224857600080fd5b8235915061225860208401611ead565b90509250929050565b60008060006060848603121561227657600080fd5b83359250602084013560ff8116811461228e57600080fd5b9150604084013567ffffffffffffffff8111156122aa57600080fd5b6122b686828701612043565b9150509250925092565b600080604083850312156122d357600080fd5b50508035926020909101359150565b7f4e487b7100000000000000000000000000000000000000000000000000000000600052603260045260246000fd5b7f4e487b7100000000000000000000000000000000000000000000000000000000600052601160045260246000fd5b6000821982111561235357612353612311565b500190565b60007fffffffffffffffffffffffffffffffffffffffffffffffffffffffffffffffff820361238957612389612311565b5060010190565b600181811c908216806123a457607f821691505b6020821081036123dd577f4e487b7100000000000000000000000000000000000000000000000000000000600052602260045260246000fd5b50919050565b600081518084526020808501945080840160005b83811015612413578151875295820195908201906001016123f7565b509495945050505050565b82815260406020820152600061243760408301846123e3565b949350505050565b60006020828403121561245157600080fd5b815180151581146116dd57600080fd5b600067ffffffffffffffff80831681851680830382111561248457612484612311565b01949350505050565b600081518084526020808501945080840160005b8381101561241357815173ffffffffffffffffffffffffffffffffffffffff16875295820195908201906001016124a1565b6000815180845260208085019450848260051b860182860160005b85811015612518578383038952612506838351611e37565b988501989250908401906001016124ee565b5090979650505050505050565b60006101208b8352602073ffffffffffffffffffffffffffffffffffffffff8c168185015281604085015261255c8285018c61248d565b91508382036060850152612570828b6123e3565b915083820360808501528189518084528284019150828160051b850101838c0160005b838110156125df577fffffffffffffffffffffffffffffffffffffffffffffffffffffffffffffffe08784030185526125cd838351611e37565b94860194925090850190600101612593565b505086810360a08801526125f3818c6124d3565b94505050505061260f60c084018767ffffffffffffffff169052565b67ffffffffffffffff851660e08401528281036101008401526126328185611e37565b9c9b505050505050505050505050565b60008251612654818460208701611e07565b9190910192915050565b60006020828403121561267057600080fd5b5051919050565b84815260ff8416602082015282604082015260806060820152600061269f6080830184611e37565b9695505050505050565b6080815260006126bc608083018761248d565b82810360208401526126ce81876123e3565b905082810360408401526126e281866124d3565b9150508260608301529594505050505056fe476f7665726e6f724e504f3a2063616c6c20726576657274656420776974686f7574206d657373616765a2646970667358221220ea5f64157636a4c20edaf12431d2bda56866a4ea4dd1925ba4cd68806d234e2c64736f6c634300080f0033",
    "linkReferences": {}
  },
  "methodIdentifiers": {
    "_domainAllowances(bytes32)": "5aed550c",
    "approveToDomain(bytes32,uint256)": "d2c37a92",
    "castVote(uint256,uint8,string)": "470b7622",
    "checkDomainAllowance(bytes32,uint256[])": "055d3463",
    "execute(address[],uint256[],bytes[],bytes32)": "2656227d",
    "getDomainAllowance(bytes32)": "160cc61b",
    "getProposalDomain(uint256)": "8ed140bd",
    "getWalletBalance()": "329a27e7",
    "hasVoted(uint256,address)": "43859632",
    "hashProposal(address[],uint256[],bytes[],bytes32)": "c59057e4",
    "init(address)": "19ab453c",
    "manager()": "481c6a75",
    "name()": "06fdde03",
    "proposalDeadline(uint256)": "c01f9e37",
    "proposalSnapshot(uint256)": "2d63f693",
    "proposalThreshold()": "b58131b0",
    "proposalVotes(uint256)": "544ffc9c",
    "propose(bytes32,address[],uint256[],bytes[],string)": "19a64262",
    "revokeDomainAllowance(bytes32)": "c24d21ed",
    "setProposalThreshold(uint256)": "ece40cc1",
    "setVotingDelay(uint256)": "70b0f660",
    "setVotingPeriod(uint256)": "ea0217cf",
    "state(uint256)": "3e4f49e6",
    "votingDelay()": "3932abb1",
    "votingPeriod()": "02a251a3"
  },
  "id": 15
}