{
  "abi": [
    {
      "inputs": [
        {
          "internalType": "address",
          "name": "governor_",
          "type": "address"
        },
        {
          "internalType": "string",
          "name": "initialRoleName_",
          "type": "string"
        },
        {
          "internalType": "string",
          "name": "initialAdminRoleName_",
          "type": "string"
        },
        {
          "internalType": "address[]",
          "name": "initialMembers_",
          "type": "address[]"
        }
      ],
      "stateMutability": "nonpayable",
      "type": "constructor"
    },
    {
      "anonymous": false,
      "inputs": [
        {
          "indexed": false,
          "internalType": "string",
          "name": "roleName",
          "type": "string"
        },
        {
          "indexed": false,
          "internalType": "string",
          "name": "adminRoleName",
          "type": "string"
        },
        {
          "indexed": false,
          "internalType": "bytes32",
          "name": "roleId",
          "type": "bytes32"
        },
        {
          "indexed": false,
          "internalType": "bytes32",
          "name": "adminRoleId",
          "type": "bytes32"
        },
        {
          "indexed": false,
          "internalType": "address[]",
          "name": "initialMembers",
          "type": "address[]"
        }
      ],
      "name": "AddedNewRole",
      "type": "event"
    },
    {
      "anonymous": false,
      "inputs": [
        {
          "indexed": false,
          "internalType": "uint256",
          "name": "roundId",
          "type": "uint256"
        },
        {
          "indexed": false,
          "internalType": "bytes32",
          "name": "domainId",
          "type": "bytes32"
        },
        {
          "indexed": false,
          "internalType": "address",
          "name": "evaluator",
          "type": "address"
        },
        {
          "indexed": false,
          "internalType": "address",
          "name": "contributor",
          "type": "address"
        },
        {
          "indexed": false,
          "internalType": "string",
          "name": "reason",
          "type": "string"
        }
      ],
      "name": "AddedReputation",
      "type": "event"
    },
    {
      "anonymous": false,
      "inputs": [
        {
          "indexed": true,
          "internalType": "address",
          "name": "owner",
          "type": "address"
        },
        {
          "indexed": true,
          "internalType": "uint256",
          "name": "id",
          "type": "uint256"
        }
      ],
      "name": "Burned",
      "type": "event"
    },
    {
      "anonymous": false,
      "inputs": [
        {
          "indexed": true,
          "internalType": "address",
          "name": "src",
          "type": "address"
        },
        {
          "indexed": true,
          "internalType": "address",
          "name": "to",
          "type": "address"
        },
        {
          "indexed": true,
          "internalType": "uint256",
          "name": "id",
          "type": "uint256"
        }
      ],
      "name": "Minted",
      "type": "event"
    },
    {
      "anonymous": false,
      "inputs": [
        {
          "indexed": true,
          "internalType": "bytes32",
          "name": "roleId",
          "type": "bytes32"
        },
        {
          "indexed": true,
          "internalType": "bytes32",
          "name": "previousAdminRole",
          "type": "bytes32"
        },
        {
          "indexed": true,
          "internalType": "bytes32",
          "name": "newAdminRole",
          "type": "bytes32"
        }
      ],
      "name": "RoleAdminChanged",
      "type": "event"
    },
    {
      "anonymous": false,
      "inputs": [
        {
          "indexed": true,
          "internalType": "bytes32",
          "name": "roleId",
          "type": "bytes32"
        },
        {
          "indexed": true,
          "internalType": "address",
          "name": "account",
          "type": "address"
        },
        {
          "indexed": true,
          "internalType": "address",
          "name": "from",
          "type": "address"
        }
      ],
      "name": "RoleGranted",
      "type": "event"
    },
    {
      "anonymous": false,
      "inputs": [
        {
          "indexed": true,
          "internalType": "bytes32",
          "name": "roleId",
          "type": "bytes32"
        },
        {
          "indexed": true,
          "internalType": "address",
          "name": "account",
          "type": "address"
        },
        {
          "indexed": true,
          "internalType": "address",
          "name": "from",
          "type": "address"
        }
      ],
      "name": "RoleRevoked",
      "type": "event"
    },
    {
      "anonymous": false,
      "inputs": [
        {
          "indexed": false,
          "internalType": "uint64",
          "name": "oldEvaluationPeriod",
          "type": "uint64"
        },
        {
          "indexed": false,
          "internalType": "uint64",
          "name": "newEvaluationPeriod",
          "type": "uint64"
        }
      ],
      "name": "SetEvaluationPeriod",
      "type": "event"
    },
    {
      "anonymous": false,
      "inputs": [
        {
          "indexed": false,
          "internalType": "uint256",
          "name": "roundId",
          "type": "uint256"
        },
        {
          "indexed": false,
          "internalType": "uint64",
          "name": "startBlock",
          "type": "uint64"
        },
        {
          "indexed": false,
          "internalType": "uint64",
          "name": "endBlock",
          "type": "uint64"
        }
      ],
      "name": "SetEvaluationRound",
      "type": "event"
    },
    {
      "anonymous": false,
      "inputs": [
        {
          "indexed": false,
          "internalType": "uint8",
          "name": "oldMaxEvaluation",
          "type": "uint8"
        },
        {
          "indexed": false,
          "internalType": "uint8",
          "name": "newMaxEvaluation",
          "type": "uint8"
        }
      ],
      "name": "SetMaxEvaluationLimit",
      "type": "event"
    },
    {
      "inputs": [],
      "name": "ACTIVE_STATUS_VALID_DURATION",
      "outputs": [
        {
          "internalType": "uint256",
          "name": "",
          "type": "uint256"
        }
      ],
      "stateMutability": "view",
      "type": "function"
    },
    {
      "inputs": [],
      "name": "EVALUATION_INITIAL_WEIGHT",
      "outputs": [
        {
          "internalType": "uint256",
          "name": "",
          "type": "uint256"
        }
      ],
      "stateMutability": "view",
      "type": "function"
    },
    {
      "inputs": [],
      "name": "GOVERNOR",
      "outputs": [
        {
          "internalType": "bytes32",
          "name": "",
          "type": "bytes32"
        }
      ],
      "stateMutability": "view",
      "type": "function"
    },
    {
      "inputs": [],
      "name": "PROPOSAL_INIRIAL_WEIGHT",
      "outputs": [
        {
          "internalType": "uint256",
          "name": "",
          "type": "uint256"
        }
      ],
      "stateMutability": "view",
      "type": "function"
    },
    {
      "inputs": [],
      "name": "REPUTAIION_INITIAL_WEIGHT",
      "outputs": [
        {
          "internalType": "uint256",
          "name": "",
          "type": "uint256"
        }
      ],
      "stateMutability": "view",
      "type": "function"
    },
    {
      "inputs": [],
      "name": "REPUTATION_VALID_DURATION",
      "outputs": [
        {
          "internalType": "uint256",
          "name": "",
          "type": "uint256"
        }
      ],
      "stateMutability": "view",
      "type": "function"
    },
    {
      "inputs": [],
      "name": "VOTING_INITIAL_WEIGHT",
      "outputs": [
        {
          "internalType": "uint256",
          "name": "",
          "type": "uint256"
        }
      ],
      "stateMutability": "view",
      "type": "function"
    },
    {
      "inputs": [
        {
          "internalType": "string",
          "name": "roleName",
          "type": "string"
        },
        {
          "internalType": "string",
          "name": "adminRoleName",
          "type": "string"
        },
        {
          "internalType": "address[]",
          "name": "initialMembers",
          "type": "address[]"
        }
      ],
      "name": "addNewRole",
      "outputs": [],
      "stateMutability": "nonpayable",
      "type": "function"
    },
    {
      "inputs": [
        {
          "internalType": "address",
          "name": "owner",
          "type": "address"
        }
      ],
      "name": "balanceOf",
      "outputs": [
        {
          "internalType": "uint256",
          "name": "",
          "type": "uint256"
        }
      ],
      "stateMutability": "view",
      "type": "function"
    },
    {
      "inputs": [
        {
          "internalType": "uint256",
          "name": "tokenId",
          "type": "uint256"
        }
      ],
      "name": "burnSBRT",
      "outputs": [],
      "stateMutability": "nonpayable",
      "type": "function"
    },
    {
      "inputs": [
        {
          "internalType": "uint256",
          "name": "roundId",
          "type": "uint256"
        },
        {
          "internalType": "address[]",
          "name": "contributors",
          "type": "address[]"
        },
        {
          "internalType": "string[]",
          "name": "reasons",
          "type": "string[]"
        }
      ],
      "name": "evaluate",
      "outputs": [
        {
          "internalType": "bool",
          "name": "",
          "type": "bool"
        }
      ],
      "stateMutability": "nonpayable",
      "type": "function"
    },
    {
      "inputs": [],
      "name": "evaluationPeriod",
      "outputs": [
        {
          "internalType": "uint64",
          "name": "",
          "type": "uint64"
        }
      ],
      "stateMutability": "view",
      "type": "function"
    },
    {
      "inputs": [
        {
          "internalType": "uint256",
          "name": "val",
          "type": "uint256"
        }
      ],
      "name": "genBackgroundSVG",
      "outputs": [
        {
          "internalType": "string",
          "name": "",
          "type": "string"
        }
      ],
      "stateMutability": "pure",
      "type": "function"
    },
    {
      "inputs": [
        {
          "internalType": "uint256",
          "name": "tokenId",
          "type": "uint256"
        },
        {
          "internalType": "uint256",
          "name": "timestamp",
          "type": "uint256"
        }
      ],
      "name": "genTextBottomSVG",
      "outputs": [
        {
          "internalType": "string",
          "name": "",
          "type": "string"
        }
      ],
      "stateMutability": "pure",
      "type": "function"
    },
    {
      "inputs": [
        {
          "internalType": "uint256",
          "name": "reputationCount",
          "type": "uint256"
        },
        {
          "internalType": "uint256",
          "name": "evaluationCount",
          "type": "uint256"
        },
        {
          "internalType": "uint256",
          "name": "votingCount",
          "type": "uint256"
        },
        {
          "internalType": "uint256",
          "name": "proposalCount",
          "type": "uint256"
        }
      ],
      "name": "genTextMidSVG",
      "outputs": [
        {
          "internalType": "string",
          "name": "",
          "type": "string"
        }
      ],
      "stateMutability": "pure",
      "type": "function"
    },
    {
      "inputs": [
        {
          "internalType": "uint256",
          "name": "tokenId",
          "type": "uint256"
        },
        {
          "internalType": "address",
          "name": "owner",
          "type": "address"
        },
        {
          "internalType": "string[]",
          "name": "roles",
          "type": "string[]"
        },
        {
          "internalType": "string",
          "name": "status",
          "type": "string"
        },
        {
          "internalType": "uint256",
          "name": "timestamp",
          "type": "uint256"
        },
        {
          "internalType": "address",
          "name": "acceptedBy",
          "type": "address"
        },
        {
          "internalType": "uint256",
          "name": "reputationCount",
          "type": "uint256"
        },
        {
          "internalType": "uint256",
          "name": "evaluateCount",
          "type": "uint256"
        },
        {
          "internalType": "uint256",
          "name": "votingCount",
          "type": "uint256"
        },
        {
          "internalType": "uint256",
          "name": "proposalCount",
          "type": "uint256"
        }
      ],
      "name": "genTextSVG",
      "outputs": [
        {
          "internalType": "string",
          "name": "",
          "type": "string"
        }
      ],
      "stateMutability": "pure",
      "type": "function"
    },
    {
      "inputs": [
        {
          "internalType": "address",
          "name": "owner",
          "type": "address"
        },
        {
          "internalType": "address",
          "name": "acceptedBy",
          "type": "address"
        },
        {
          "internalType": "string[]",
          "name": "roles",
          "type": "string[]"
        },
        {
          "internalType": "string",
          "name": "status",
          "type": "string"
        }
      ],
      "name": "genTextTopSVG",
      "outputs": [
        {
          "internalType": "string",
          "name": "",
          "type": "string"
        }
      ],
      "stateMutability": "pure",
      "type": "function"
    },
    {
      "inputs": [
        {
          "internalType": "uint256",
          "name": "tokenId",
          "type": "uint256"
        }
      ],
      "name": "getAttribute",
      "outputs": [
        {
          "internalType": "address",
          "name": "acceptedBy",
          "type": "address"
        },
        {
          "internalType": "uint256",
          "name": "createdAt",
          "type": "uint256"
        },
        {
          "internalType": "uint256",
          "name": "updatedAt",
          "type": "uint256"
        },
        {
          "internalType": "uint32",
          "name": "rcount",
          "type": "uint32"
        },
        {
          "internalType": "uint32",
          "name": "ecount",
          "type": "uint32"
        },
        {
          "internalType": "uint32",
          "name": "vcount",
          "type": "uint32"
        },
        {
          "internalType": "uint32",
          "name": "scount",
          "type": "uint32"
        }
      ],
      "stateMutability": "view",
      "type": "function"
    },
    {
      "inputs": [
        {
          "internalType": "uint256",
          "name": "tokenId",
          "type": "uint256"
        },
        {
          "internalType": "address",
          "name": "owner",
          "type": "address"
        },
        {
          "internalType": "string[]",
          "name": "roles",
          "type": "string[]"
        },
        {
          "internalType": "string",
          "name": "status",
          "type": "string"
        },
        {
          "internalType": "uint256",
          "name": "timestamp",
          "type": "uint256"
        },
        {
          "internalType": "address",
          "name": "acceptedBy",
          "type": "address"
        },
        {
          "internalType": "uint256",
          "name": "reputationCount",
          "type": "uint256"
        },
        {
          "internalType": "uint256",
          "name": "evaluateCount",
          "type": "uint256"
        },
        {
          "internalType": "uint256",
          "name": "votingCount",
          "type": "uint256"
        },
        {
          "internalType": "uint256",
          "name": "proposalCount",
          "type": "uint256"
        }
      ],
      "name": "getDataURI",
      "outputs": [
        {
          "internalType": "string",
          "name": "",
          "type": "string"
        }
      ],
      "stateMutability": "pure",
      "type": "function"
    },
    {
      "inputs": [
        {
          "internalType": "address",
          "name": "account",
          "type": "address"
        }
      ],
      "name": "getGrantedRoles",
      "outputs": [
        {
          "internalType": "string[]",
          "name": "",
          "type": "string[]"
        }
      ],
      "stateMutability": "view",
      "type": "function"
    },
    {
      "inputs": [],
      "name": "getMemberCount",
      "outputs": [
        {
          "internalType": "uint256",
          "name": "",
          "type": "uint256"
        }
      ],
      "stateMutability": "view",
      "type": "function"
    },
    {
      "inputs": [
        {
          "internalType": "address",
          "name": "member",
          "type": "address"
        }
      ],
      "name": "getMemberRoleCount",
      "outputs": [
        {
          "internalType": "uint256",
          "name": "",
          "type": "uint256"
        }
      ],
      "stateMutability": "view",
      "type": "function"
    },
    {
      "inputs": [
        {
          "internalType": "address",
          "name": "member",
          "type": "address"
        }
      ],
      "name": "getMemberStatus",
      "outputs": [
        {
          "internalType": "enum SBRT.MemberStatus",
          "name": "",
          "type": "uint8"
        }
      ],
      "stateMutability": "view",
      "type": "function"
    },
    {
      "inputs": [
        {
          "internalType": "bytes32",
          "name": "role",
          "type": "bytes32"
        }
      ],
      "name": "getRoleAdmin",
      "outputs": [
        {
          "internalType": "bytes32",
          "name": "",
          "type": "bytes32"
        }
      ],
      "stateMutability": "view",
      "type": "function"
    },
    {
      "inputs": [
        {
          "internalType": "bytes32",
          "name": "role",
          "type": "bytes32"
        }
      ],
      "name": "getRoleMemberCount",
      "outputs": [
        {
          "internalType": "uint256",
          "name": "",
          "type": "uint256"
        }
      ],
      "stateMutability": "view",
      "type": "function"
    },
    {
      "inputs": [
        {
          "internalType": "bytes32",
          "name": "roleId",
          "type": "bytes32"
        }
      ],
      "name": "getRoleName",
      "outputs": [
        {
          "internalType": "string",
          "name": "",
          "type": "string"
        }
      ],
      "stateMutability": "view",
      "type": "function"
    },
    {
      "inputs": [
        {
          "internalType": "uint256",
          "name": "roundId",
          "type": "uint256"
        }
      ],
      "name": "getRoundDomainId",
      "outputs": [
        {
          "internalType": "bytes32",
          "name": "",
          "type": "bytes32"
        }
      ],
      "stateMutability": "view",
      "type": "function"
    },
    {
      "inputs": [
        {
          "internalType": "address",
          "name": "account",
          "type": "address"
        }
      ],
      "name": "getVotes",
      "outputs": [
        {
          "internalType": "uint256",
          "name": "",
          "type": "uint256"
        }
      ],
      "stateMutability": "view",
      "type": "function"
    },
    {
      "inputs": [
        {
          "internalType": "address",
          "name": "account",
          "type": "address"
        },
        {
          "internalType": "bytes32",
          "name": "domainId",
          "type": "bytes32"
        }
      ],
      "name": "getVotesInDomain",
      "outputs": [
        {
          "internalType": "uint256",
          "name": "",
          "type": "uint256"
        }
      ],
      "stateMutability": "view",
      "type": "function"
    },
    {
      "inputs": [
        {
          "internalType": "bytes32",
          "name": "role",
          "type": "bytes32"
        },
        {
          "internalType": "address",
          "name": "account",
          "type": "address"
        }
      ],
      "name": "hasRole",
      "outputs": [
        {
          "internalType": "bool",
          "name": "",
          "type": "bool"
        }
      ],
      "stateMutability": "view",
      "type": "function"
    },
    {
      "inputs": [
        {
          "internalType": "address",
          "name": "account",
          "type": "address"
        }
      ],
      "name": "incrementScount",
      "outputs": [],
      "stateMutability": "nonpayable",
      "type": "function"
    },
    {
      "inputs": [
        {
          "internalType": "address",
          "name": "account",
          "type": "address"
        }
      ],
      "name": "incrementVcount",
      "outputs": [],
      "stateMutability": "nonpayable",
      "type": "function"
    },
    {
      "inputs": [
        {
          "internalType": "bytes32",
          "name": "domainId",
          "type": "bytes32"
        },
        {
          "internalType": "address",
          "name": "account",
          "type": "address"
        }
      ],
      "name": "isEvaluator",
      "outputs": [
        {
          "internalType": "bool",
          "name": "",
          "type": "bool"
        }
      ],
      "stateMutability": "view",
      "type": "function"
    },
    {
      "inputs": [],
      "name": "maxEvaluationLimit",
      "outputs": [
        {
          "internalType": "uint8",
          "name": "",
          "type": "uint8"
        }
      ],
      "stateMutability": "view",
      "type": "function"
    },
    {
      "inputs": [],
      "name": "name",
      "outputs": [
        {
          "internalType": "string",
          "name": "",
          "type": "string"
        }
      ],
      "stateMutability": "view",
      "type": "function"
    },
    {
      "inputs": [
        {
          "internalType": "uint256",
          "name": "tokenId",
          "type": "uint256"
        }
      ],
      "name": "ownerOf",
      "outputs": [
        {
          "internalType": "address",
          "name": "",
          "type": "address"
        }
      ],
      "stateMutability": "view",
      "type": "function"
    },
    {
      "inputs": [
        {
          "internalType": "address",
          "name": "member",
          "type": "address"
        }
      ],
      "name": "revokeAllRoles",
      "outputs": [],
      "stateMutability": "nonpayable",
      "type": "function"
    },
    {
      "inputs": [
        {
          "internalType": "bytes32",
          "name": "role",
          "type": "bytes32"
        },
        {
          "internalType": "address",
          "name": "member",
          "type": "address"
        }
      ],
      "name": "revokeRole",
      "outputs": [],
      "stateMutability": "nonpayable",
      "type": "function"
    },
    {
      "inputs": [
        {
          "internalType": "bytes32",
          "name": "role",
          "type": "bytes32"
        }
      ],
      "name": "roleExists",
      "outputs": [
        {
          "internalType": "bool",
          "name": "",
          "type": "bool"
        }
      ],
      "stateMutability": "view",
      "type": "function"
    },
    {
      "inputs": [
        {
          "internalType": "uint8",
          "name": "newMaxEvaluationLimit",
          "type": "uint8"
        }
      ],
      "name": "setEvaluationLimit",
      "outputs": [],
      "stateMutability": "nonpayable",
      "type": "function"
    },
    {
      "inputs": [
        {
          "internalType": "uint64",
          "name": "evaluationPeriod",
          "type": "uint64"
        }
      ],
      "name": "setEvaluationPeriod",
      "outputs": [],
      "stateMutability": "nonpayable",
      "type": "function"
    },
    {
      "inputs": [
        {
          "internalType": "bytes32",
          "name": "domainId",
          "type": "bytes32"
        },
        {
          "internalType": "uint64",
          "name": "startBlock",
          "type": "uint64"
        }
      ],
      "name": "setEvaluationRound",
      "outputs": [
        {
          "internalType": "bool",
          "name": "",
          "type": "bool"
        }
      ],
      "stateMutability": "nonpayable",
      "type": "function"
    },
    {
      "inputs": [
        {
          "internalType": "uint256",
          "name": "roundId",
          "type": "uint256"
        }
      ],
      "name": "stateOf",
      "outputs": [
        {
          "internalType": "string",
          "name": "",
          "type": "string"
        }
      ],
      "stateMutability": "view",
      "type": "function"
    },
    {
      "inputs": [],
      "name": "symbol",
      "outputs": [
        {
          "internalType": "string",
          "name": "",
          "type": "string"
        }
      ],
      "stateMutability": "view",
      "type": "function"
    },
    {
      "inputs": [
        {
          "internalType": "uint256",
          "name": "index",
          "type": "uint256"
        }
      ],
      "name": "tokenByIndex",
      "outputs": [
        {
          "internalType": "uint256",
          "name": "",
          "type": "uint256"
        }
      ],
      "stateMutability": "view",
      "type": "function"
    },
    {
      "inputs": [
        {
          "internalType": "address",
          "name": "owner",
          "type": "address"
        },
        {
          "internalType": "uint256",
          "name": "index",
          "type": "uint256"
        }
      ],
      "name": "tokenOfOwnerByIndex",
      "outputs": [
        {
          "internalType": "uint256",
          "name": "",
          "type": "uint256"
        }
      ],
      "stateMutability": "view",
      "type": "function"
    },
    {
      "inputs": [
        {
          "internalType": "uint256",
          "name": "tokenId",
          "type": "uint256"
        }
      ],
      "name": "tokenURI",
      "outputs": [
        {
          "internalType": "string",
          "name": "",
          "type": "string"
        }
      ],
      "stateMutability": "view",
      "type": "function"
    },
    {
      "inputs": [],
      "name": "totalSupply",
      "outputs": [
        {
          "internalType": "uint256",
          "name": "",
          "type": "uint256"
        }
      ],
      "stateMutability": "view",
      "type": "function"
    }
  ],
  "bytecode": {
    "object": "0x60806040523480156200001157600080fd5b50604051620065b7380380620065b7833981016040819052620000349162000d43565b600361b5bb858585856040518060400160405280601a81526020017f536f756c626f756e642052657075746174696f6e20546f6b656e0000000000008152506040518060400160405280600481526020016314d0949560e21b8152508160009081620000a1919062000ee6565b506001620000b0828262000ee6565b505050620000e57f1a6838efa4183e08fe3607359d1259272af9d4716f65e1a7b5921f78fd5a3c6a856200013060201b60201c565b620000f283838362000160565b5050600d80546001600160401b03909416610100026001600160481b031990941660ff9095169490941792909217909255506200115f945050505050565b60009182526009602090815260408084206001600160a01b0390931684529190529020805460ff19166001179055565b60008360405160200162000175919062000fb2565b604051602081830303815290604052805190602001209050600083604051602001620001a2919062000fb2565b604051602081830303815290604052805190602001209050620001cc82866200038360201b60201c565b620001d8818562000383565b620001e48282620003a5565b60005b83518110156200033a576200021e8482815181106200020a576200020a62000fd0565b6020026020010151620003f060201b60201c565b60000362000285576200027f3385838151811062000240576200024062000fd0565b60200260200101518560006040518060400160405280600f81526020016e24b734ba34b0b61026b2b6b2b132b960891b8152506200045e60201b60201c565b6200030b565b620002dd338583815181106200029f576200029f62000fd0565b60200260200101518560006040518060400160405280600e81526020016d24b734ba34b0b61026b2b6b132b960911b815250620004a960201b60201c565b6200030b83858381518110620002f757620002f762000fd0565b60200260200101516200058c60201b60201c565b6200032582858381518110620002f757620002f762000fd0565b80620003318162000ffc565b915050620001e7565b507f5cdd56de5f35f5932b09b35714958d501d1b8bb32882c5683a8b0a929b08318c85858484876040516200037495949392919062001046565b60405180910390a15050505050565b6000828152600960205260409020600201620003a0828262000ee6565b505050565b600082815260096020526040808220600101805490849055905190918391839186917fbd79b86ffe0ab8e8776151514217cd7cacd52c909f66475c3af44e129f0b00ff9190a4505050565b60006001600160a01b038216620004425760405162461bcd60e51b81526020600482015260116024820152705342543a207a65726f206164647265737360781b60448201526064015b60405180910390fd5b506001600160a01b031660009081526004602052604090205490565b60006200046a60085490565b62000477906001620010ce565b90506200048585826200069d565b62000495818787878787620007e8565b620004a184866200058c565b505050505050565b6000620004b78582620008b2565b604080516060810182528681526001600160a01b038981166020808401918252428486018181526000888152600c8452878120600481018054600180820183559184529590922088516003968702909101908155955186830180546001600160a01b03191691909816179096559051600294850155928401558201805463ffffffff19811663ffffffff9182169093011691909117905591519293509160008051602062006597833981519152906200057a90879089908c908c908a90620010e9565b60405180910390a15050505050505050565b60008281526009602090815260408083206001600160a01b038516845290915290205460ff16620006995760008281526009602081815260408084206001600160a01b0386168552808352908420805460ff19166001179055928590529081526200060491600301906200216b62000957821b17901c565b60405133906001600160a01b0383169084907f2f8788117e7eff1d82e926ec794901d17c78024a50270940304540a733656f0d90600090a46001600160a01b0381166000908152600a602052604090206200065f8362000960565b8154600181018355600092835260209092209091019062000681908262000ee6565b5062000699600b6200095760201b6200216b1760201c565b5050565b6001600160a01b038216620006ea5760405162461bcd60e51b81526020600482015260126024820152715342543a20207a65726f206164647265737360701b604482015260640162000439565b6000818152600360205260409020546001600160a01b031615620007515760405162461bcd60e51b815260206004820152601960248201527f5342543a20746f6b656e20616c7265616479206d696e74656400000000000000604482015260640162000439565b6200075f6000838362000a0d565b6001600160a01b03821660009081526004602052604081208054600192906200078a908490620010ce565b909155505060008181526003602052604080822080546001600160a01b0319166001600160a01b03861690811790915590518392907f9d228d69b5fdb8d273a2336f8fb8612d039631024ea9bf09c424a9503aa078f0908290a45050565b604080516060810182528481526001600160a01b0387811660208084018281524285870181815260008e8152600c855288812080546001600160a01b0319908116909717815560018082018590556002808301959095556003808301805463ffffffff1916831790556004830180548084018255908552979093208a5197909302909201958655935190850180549096169616959095179093559251910155915190919060008051602062006597833981519152906200057a90869088908b908b908990620010e9565b6000620008ca83620003f060201b62000f991760201c565b82106200092e5760405162461bcd60e51b815260206004820152602b60248201527f534254373231456e756d657261626c653a206f776e657220696e646578206f7560448201526a74206f6620626f756e647360a81b606482015260840162000439565b506001600160a01b03919091166000908152600560209081526040808320938352929052205490565b80546001019055565b6000818152600960205260409020600201805460609190620009829062000e60565b80601f0160208091040260200160405190810160405280929190818152602001828054620009b09062000e60565b801562000a015780601f10620009d55761010080835404028352916020019162000a01565b820191906000526020600020905b815481529060010190602001808311620009e357829003601f168201915b50505050509050919050565b6001600160a01b03831662000a2857620003a0828262000a43565b6001600160a01b038216620003a057620003a0838262000acb565b60088054600083815260076020908152604082208390556001830184559281527ff3f7a9fe364faab93b216da50a3214154f22a0a2b415b23a84c8169e8b636ee39091018390559062000aa190849062000f99620003f0821b17901c565b6001600160a01b039093166000908152600560209081526040808320958352949052929092205550565b60085460009062000adf906001906200112f565b905060006008828154811062000af95762000af962000fd0565b90600052602060002001549050600060076000858152602001908152602001600020549050816008828154811062000b355762000b3562000fd0565b600091825260208083209091019290925583815260079091526040808220839055858252812055600880548062000b705762000b7062001149565b600190038181906000526020600020016000905590556000600162000ba087620003f060201b62000f991760201c565b62000bac91906200112f565b60008681526006602052604090205490915080821462000c00576001600160a01b03871660009081526005602090815260408083208584528252808320548484528184208190558352600690915290208190555b5060009485526006602090815260408087208790556001600160a01b039097168652600581528686209186525250505090812055565b80516001600160a01b038116811462000c4e57600080fd5b919050565b634e487b7160e01b600052604160045260246000fd5b604051601f8201601f191681016001600160401b038111828210171562000c945762000c9462000c53565b604052919050565b60005b8381101562000cb957818101518382015260200162000c9f565b8381111562000cc9576000848401525b50505050565b600082601f83011262000ce157600080fd5b81516001600160401b0381111562000cfd5762000cfd62000c53565b62000d12601f8201601f191660200162000c69565b81815284602083860101111562000d2857600080fd5b62000d3b82602083016020870162000c9c565b949350505050565b6000806000806080858703121562000d5a57600080fd5b62000d658562000c36565b602086810151919550906001600160401b038082111562000d8557600080fd5b62000d9389838a0162000ccf565b9550604088015191508082111562000daa57600080fd5b62000db889838a0162000ccf565b9450606088015191508082111562000dcf57600080fd5b818801915088601f83011262000de457600080fd5b81518181111562000df95762000df962000c53565b8060051b915062000e0c84830162000c69565b818152918301840191848101908b84111562000e2757600080fd5b938501935b8385101562000e505762000e408562000c36565b8252938501939085019062000e2c565b989b979a50959850505050505050565b600181811c9082168062000e7557607f821691505b60208210810362000e9657634e487b7160e01b600052602260045260246000fd5b50919050565b601f821115620003a057600081815260208120601f850160051c8101602086101562000ec55750805b601f850160051c820191505b81811015620004a15782815560010162000ed1565b81516001600160401b0381111562000f025762000f0262000c53565b62000f1a8162000f13845462000e60565b8462000e9c565b602080601f83116001811462000f52576000841562000f395750858301515b600019600386901b1c1916600185901b178555620004a1565b600085815260208120601f198616915b8281101562000f835788860151825594840194600190910190840162000f62565b508582101562000fa25787850151600019600388901b60f8161c191681555b5050505050600190811b01905550565b6000825162000fc681846020870162000c9c565b9190910192915050565b634e487b7160e01b600052603260045260246000fd5b634e487b7160e01b600052601160045260246000fd5b60006001820162001011576200101162000fe6565b5060010190565b600081518084526200103281602086016020860162000c9c565b601f01601f19169290920160200192915050565b60a0815260006200105b60a083018862001018565b60208382038185015262001070828962001018565b60408501889052606085018790528481036080860152855180825282870193509082019060005b81811015620010be5784516001600160a01b03168352938301939183019160010162001097565b50909a9950505050505050505050565b60008219821115620010e457620010e462000fe6565b500190565b858152602081018590526001600160a01b0384811660408301528316606082015260a060808201819052600090620011249083018462001018565b979650505050505050565b60008282101562001144576200114462000fe6565b500390565b634e487b7160e01b600052603160045260246000fd5b615428806200116f6000396000f3fe608060405234801561001057600080fd5b50600436106103205760003560e01c80638b118f94116101a7578063c87b56dd116100ee578063dde8535f11610097578063f31561be11610071578063f31561be146107ce578063f9c6a02c146107e1578063fa6b6b0f146107f457600080fd5b8063dde8535f14610786578063e3c37d06146107a6578063f0993d4f146107bb57600080fd5b8063cc383b38116100c8578063cc383b381461074d578063d3ac528114610760578063d547741f1461077357600080fd5b8063c87b56dd1461071f578063ca15c87314610732578063cb9b6d631461074557600080fd5b8063a8bd3bac11610150578063bfcb71f81161012a578063bfcb71f8146106ef578063c4c775e4146106f9578063c7219ec01461070c57600080fd5b8063a8bd3bac146106b6578063b41406f9146106c9578063b8ab0cbe146106dc57600080fd5b8063997072f711610181578063997072f7146106885780639ab24eb014610690578063a8207542146106a357600080fd5b80638b118f941461062757806391d148541461063a57806395d89b411461068057600080fd5b8063493fe80f1161026b57806370a082311161021457806375592546116101ee57806375592546146105dc5780637b79bd15146105fc5780637b83e6fb1461032557600080fd5b806370a08231146105a357806372965cbc146105b657806373e659a6146105c957600080fd5b80635c2786a5116102455780635c2786a51461050e5780636352211e146105445780636dc0ae221461057c57600080fd5b8063493fe80f1461040f5780634ebb7f33146104e85780634f6ccce7146104fb57600080fd5b8063235c6840116102cd578063276480ae116102a7578063276480ae146103de5780632f745c59146103f157806343cb59171461040457600080fd5b8063235c684014610325578063248a9ca3146103985780632648162f146103bb57600080fd5b80631463b4e9116102fe5780631463b4e91461036857806318160ddd1461037d578063217056be1461038557600080fd5b806306738ef01461032557806306fdde0314610340578063131a7e2414610355575b600080fd5b61032d600a81565b6040519081526020015b60405180910390f35b610348610807565b6040516103379190613b51565b610348610363366004613b64565b610899565b61037b610376366004613b7d565b6109e7565b005b60085461032d565b610348610393366004613ba0565b610a1e565b61032d6103a6366004613b64565b60009081526009602052604090206001015490565b6103ce6103c9366004613bda565b610a5b565b6040519015158152602001610337565b61037b6103ec366004613c2a565b610c41565b61032d6103ff366004613c45565b610cdb565b61032d6301e1338081565b61049161041d366004613b64565b6000908152600c6020526040902080546001820154600283015460039093015473ffffffffffffffffffffffffffffffffffffffff9092169390929163ffffffff8082169264010000000083048216926801000000000000000081048316926c010000000000000000000000009091041690565b6040805173ffffffffffffffffffffffffffffffffffffffff909816885260208801969096529486019390935263ffffffff91821660608601528116608085015290811660a08401521660c082015260e001610337565b6103486104f6366004613b64565b610daa565b61032d610509366004613b64565b610e4f565b61032d61051c366004613c2a565b73ffffffffffffffffffffffffffffffffffffffff166000908152600a602052604090205490565b610557610552366004613b64565b610f0d565b60405173ffffffffffffffffffffffffffffffffffffffff9091168152602001610337565b61032d7f1a6838efa4183e08fe3607359d1259272af9d4716f65e1a7b5921f78fd5a3c6a81565b61032d6105b1366004613c2a565b610f99565b61037b6105c4366004613b64565b611041565b6103486105d7366004613e2f565b6110d2565b6105ef6105ea366004613c2a565b61114e565b6040516103379190613eb4565b600d54610100900467ffffffffffffffff1660405167ffffffffffffffff9091168152602001610337565b6103ce610635366004613f80565b61124a565b6103ce610648366004613ffa565b600091825260096020908152604080842073ffffffffffffffffffffffffffffffffffffffff93909316845291905290205460ff1690565b610348611730565b61032d61173f565b61032d61069e366004613c2a565b61174f565b6103ce6106b1366004613ffa565b61190f565b61032d6106c4366004613c45565b61194a565b6103ce6106d7366004613b64565b611b19565b6103486106ea36600461401d565b611b3e565b61032d6224ea0081565b6103486107073660046140de565b611ba5565b61034861071a366004613b64565b611bf7565b61034861072d366004613b64565b611c53565b61032d610740366004613b64565b611d80565b61032d606481565b61037b61075b366004614110565b611d97565b61034861076e36600461401d565b611dd2565b61037b610781366004613ffa565b611e94565b610799610794366004613c2a565b611ec3565b6040516103379190614224565b600d5460405160ff9091168152602001610337565b61037b6107c9366004613c2a565b611fc3565b61037b6107dc366004614265565b611fed565b61037b6107ef366004613c2a565b612020565b61032d610802366004613b64565b6120be565b60606000805461081690614280565b80601f016020809104026020016040519081016040528092919081815260200182805461084290614280565b801561088f5780601f106108645761010080835404028352916020019161088f565b820191906000526020600020905b81548152906001019060200180831161087257829003601f168201915b5050505050905090565b606060006108a683612174565b60028111156108b7576108b76141f5565b036108f557505060408051808201909152600781527f50454e44494e4700000000000000000000000000000000000000000000000000602082015290565b600161090083612174565b6002811115610911576109116141f5565b0361094f57505060408051808201909152600b81527f494e5f50524f4752455353000000000000000000000000000000000000000000602082015290565b600261095a83612174565b600281111561096b5761096b6141f5565b036109a957505060408051808201909152600581527f454e444544000000000000000000000000000000000000000000000000000000602082015290565b505060408051808201909152600781527f554e4b4e4f574e00000000000000000000000000000000000000000000000000602082015290565b919050565b7f1a6838efa4183e08fe3607359d1259272af9d4716f65e1a7b5921f78fd5a3c6a610a1181612295565b610a1a826122a2565b5050565b6060610a2983612326565b610a3283612326565b604051602001610a439291906142ef565b60405160208183030381529060405290505b92915050565b60007f1a6838efa4183e08fe3607359d1259272af9d4716f65e1a7b5921f78fd5a3c6a610a8781612295565b610a9084611b19565b610b21576040517f08c379a000000000000000000000000000000000000000000000000000000000815260206004820152602260248201527f534252544d616e616765723a20446f6d61696e20646f6573206e6f742065786960448201527f737400000000000000000000000000000000000000000000000000000000000060648201526084015b60405180910390fd5b610b2f600f80546001019055565b6000610b3a600f5490565b90506000610b57600d5467ffffffffffffffff6101009091041690565b610b6190866144d8565b6000838152600e602052604090206001810180547fffffffffffffffffffffffffffffffffffffffffffffffff00000000000000001667ffffffffffffffff89161790559091506002810180547fffffffffffffffffffffffffffffffffffffffffffffffff00000000000000001667ffffffffffffffff84161790558681557f0e9c5c7ee896b4c35d427df03ea63aab122736c454c8548f7ed05ecfc1442385610c0b600f5490565b6040805191825267ffffffffffffffff808a16602084015285169082015260600160405180910390a15060019695505050505050565b7f1a6838efa4183e08fe3607359d1259272af9d4716f65e1a7b5921f78fd5a3c6a610c6b81612295565b6000610c78836000610cdb565b6000908152600c60205260409020600381018054600163ffffffff6801000000000000000080840482169290920116027fffffffffffffffffffffffffffffffffffffffff00000000ffffffffffffffff90911617905542600290910155505050565b6000610ce683610f99565b8210610d74576040517f08c379a000000000000000000000000000000000000000000000000000000000815260206004820152602b60248201527f534254373231456e756d657261626c653a206f776e657220696e646578206f7560448201527f74206f6620626f756e64730000000000000000000000000000000000000000006064820152608401610b18565b5073ffffffffffffffffffffffffffffffffffffffff919091166000908152600560209081526040808320938352929052205490565b6000818152600960205260409020600201805460609190610dca90614280565b80601f0160208091040260200160405190810160405280929190818152602001828054610df690614280565b8015610e435780601f10610e1857610100808354040283529160200191610e43565b820191906000526020600020905b815481529060010190602001808311610e2657829003601f168201915b50505050509050919050565b6000610e5a60085490565b8210610ee8576040517f08c379a000000000000000000000000000000000000000000000000000000000815260206004820152602c60248201527f534254373231456e756d657261626c653a20676c6f62616c20696e646578206f60448201527f7574206f6620626f756e647300000000000000000000000000000000000000006064820152608401610b18565b60088281548110610efb57610efb614504565b90600052602060002001549050919050565b60008181526003602052604081205473ffffffffffffffffffffffffffffffffffffffff1680610a55576040517f08c379a000000000000000000000000000000000000000000000000000000000815260206004820152601160248201527f5342543a207a65726f20616464726573730000000000000000000000000000006044820152606401610b18565b600073ffffffffffffffffffffffffffffffffffffffff8216611018576040517f08c379a000000000000000000000000000000000000000000000000000000000815260206004820152601160248201527f5342543a207a65726f20616464726573730000000000000000000000000000006044820152606401610b18565b5073ffffffffffffffffffffffffffffffffffffffff1660009081526004602052604090205490565b7f1a6838efa4183e08fe3607359d1259272af9d4716f65e1a7b5921f78fd5a3c6a61106b81612295565b600061107683610f0d565b90506110818361245b565b61108a83612527565b604051839073ffffffffffffffffffffffffffffffffffffffff8316907f696de425f79f4a40bc6d2122ca50507f0efbeabbff86a84871b7196ab8ea8df790600090a3505050565b606060006110df846125a1565b90506111008673ffffffffffffffffffffffffffffffffffffffff16612616565b61111f8673ffffffffffffffffffffffffffffffffffffffff16612616565b82856040516020016111349493929190614533565b604051602081830303815290604052915050949350505050565b73ffffffffffffffffffffffffffffffffffffffff81166000908152600a60209081526040808320805482518185028101850190935280835260609492939192909184015b8282101561123f5783829060005260206000200180546111b290614280565b80601f01602080910402602001604051908101604052809291908181526020018280546111de90614280565b801561122b5780601f106112005761010080835404028352916020019161122b565b820191906000526020600020905b81548152906001019060200180831161120e57829003601f168201915b505050505081526020019060010190611193565b505050509050919050565b6000600161125787612174565b6002811115611268576112686141f5565b146112f5576040517f08c379a000000000000000000000000000000000000000000000000000000000815260206004820152602a60248201527f534252544d616e616765723a3a2054686520726f756e64206973206e6f74206960448201527f6e2070726f6772657373000000000000000000000000000000000000000000006064820152608401610b18565b6040517ffa6b6b0f0000000000000000000000000000000000000000000000000000000081526004810187905261137890309063fa6b6b0f90602401602060405180830381865afa15801561134e573d6000803e3d6000fd5b505050506040513d601f19601f8201168201806040525081019061137291906147a3565b33610648565b611404576040517f08c379a000000000000000000000000000000000000000000000000000000000815260206004820152602e60248201527f534252544d616e616765723a3a204f6e6c7920646f6d61696e206d656d62657260448201527f732063616e206576616c756174650000000000000000000000000000000000006064820152608401610b18565b6000868152600e6020908152604080832033845260030190915290205460ff16156114b1576040517f08c379a000000000000000000000000000000000000000000000000000000000815260206004820152603360248201527f534252544d616e616765723a3a20596f75206861766520616c7265616479206560448201527f76616c7561746564207468697320726f756e64000000000000000000000000006064820152608401610b18565b600d5460ff1684118015906114c557508382145b611551576040517f08c379a000000000000000000000000000000000000000000000000000000000815260206004820152603760248201527f534252544d616e616765723a3a20546865206e756d626572206f6620636f6e7460448201527f72696275746f7273206973206e6f7420636f72726563740000000000000000006064820152608401610b18565b60005b848110156116715761165f3387878481811061157257611572614504565b90506020020160208101906115879190613c2a565b6040517ffa6b6b0f000000000000000000000000000000000000000000000000000000008152600481018b9052309063fa6b6b0f90602401602060405180830381865afa1580156115dc573d6000803e3d6000fd5b505050506040513d601f19601f8201168201806040525081019061160091906147a3565b8a88888781811061161357611613614504565b905060200281019061162591906147bc565b8080601f01602080910402602001604051908101604052809392919081815260200183838082843760009201919091525061263992505050565b8061166981614821565b915050611554565b506000868152600e60209081526040808320338085526003909101909252822080547fffffffffffffffffffffffffffffffffffffffffffffffffffffffffffffff00166001179055611724916116c89190610cdb565b6000908152600c60205260409020600381018054600163ffffffff64010000000080840482169290920116027fffffffffffffffffffffffffffffffffffffffffffffffff00000000ffffffff90911617905542600290910155565b50600195945050505050565b60606001805461081690614280565b600061174a600b5490565b905090565b73ffffffffffffffffffffffffffffffffffffffff81166000908152600a6020526040812054158061181f575060006040517fdde8535f00000000000000000000000000000000000000000000000000000000815273ffffffffffffffffffffffffffffffffffffffff84166004820152309063dde8535f90602401602060405180830381865afa1580156117e8573d6000803e3d6000fd5b505050506040513d601f19601f8201168201806040525081019061180c9190614859565b600181111561181d5761181d6141f5565b145b1561182c57506000919050565b6000611839836000610cdb565b6000818152600c60205260408120600301549192509061186990600a90640100000000900463ffffffff1661487a565b6000838152600c60205260408120600301549192509061189d90600a9068010000000000000000900463ffffffff1661487a565b6000848152600c6020526040812060030154919250906118d590600a906c01000000000000000000000000900463ffffffff1661487a565b905060006118e285612934565b905081836118f086846148b7565b6118fa91906148b7565b61190491906148b7565b979650505050505050565b600082815260096020908152604080832073ffffffffffffffffffffffffffffffffffffffff8516845290915281205460ff165b9392505050565b600081815260096020908152604080832073ffffffffffffffffffffffffffffffffffffffff8616845290915281205460ff161580611a27575060006040517fdde8535f00000000000000000000000000000000000000000000000000000000815273ffffffffffffffffffffffffffffffffffffffff85166004820152309063dde8535f90602401602060405180830381865afa1580156119f0573d6000803e3d6000fd5b505050506040513d601f19601f82011682018060405250810190611a149190614859565b6001811115611a2557611a256141f5565b145b15611a3457506000610a55565b6000611a41846000610cdb565b6000818152600c602052604081206003015491925090611a7190600a90640100000000900463ffffffff1661487a565b6000838152600c602052604081206003015491925090611aa590600a9068010000000000000000900463ffffffff1661487a565b6000848152600c602052604081206003015491925090611add90600a906c01000000000000000000000000900463ffffffff1661487a565b90506000611aeb8588612978565b90508183611af986846148b7565b611b0391906148b7565b611b0d91906148b7565b98975050505050505050565b60008181526009602052604081206002018054611b3590614280565b15159392505050565b60606000611b4e8b888c8c6110d2565b90506000611b5e87878787611ba5565b90506000611b6c8e8b610a1e565b9050828282604051602001611b83939291906148cf565b60405160208183030381529060405293505050509a9950505050505050505050565b6060611bb085612326565b611bb985612326565b611bc285612326565b611bcb85612326565b604051602001611bde9493929190614912565b6040516020818303038152906040529050949350505050565b60606000611c0761016984614b10565b90506000611c16606585614b10565b9050611c2182612326565b611c2a82612326565b604051602001611c3b929190614b24565b60405160208183030381529060405292505050919050565b6000818152600c60205260408120606091611c6d84610f0d565b90506000611c7a8261114e565b90506000426301e133808560020154611c9391906148b7565b11611cd3576040518060400160405280600881526020017f494e414354495645000000000000000000000000000000000000000000000000815250611d0a565b6040518060400160405280600681526020017f41435449564500000000000000000000000000000000000000000000000000008152505b9050611d7686611d1988610f0d565b8654600388015486918691429173ffffffffffffffffffffffffffffffffffffffff169063ffffffff8082169164010000000081048216916801000000000000000082048116916c01000000000000000000000000900416611dd2565b9695505050505050565b600081815260096020526040812060030154610a55565b7f1a6838efa4183e08fe3607359d1259272af9d4716f65e1a7b5921f78fd5a3c6a611dc181612295565b611dcc8484846129fa565b50505050565b604051606086811b7fffffffffffffffffffffffffffffffffffffffff0000000000000000000000009081166020840152603483018d90528b821b166054830152906000906068016040516020818303038152906040528051906020012060001c90506000611e4082611bf7565b90506000611e568e8e8e8e8e8e8e8e8e8e611b3e565b9050611e828282604051602001611e6e929190614ede565b604051602081830303815290604052612bf2565b9e9d5050505050505050505050505050565b7f1a6838efa4183e08fe3607359d1259272af9d4716f65e1a7b5921f78fd5a3c6a611ebe81612295565b505050565b73ffffffffffffffffffffffffffffffffffffffff81166000908152600a60205260408120548110611f77576040517f08c379a000000000000000000000000000000000000000000000000000000000815260206004820152602360248201527f6163636f756e74206973206e6f742061206d656d626572206f6620616e79207260448201527f6f6c6500000000000000000000000000000000000000000000000000000000006064820152608401610b18565b6000611f84836000610cdb565b6000818152600c602052604090206002810154919250904290611fac906301e13380906148b7565b11611fb8576000611fbb565b60015b949350505050565b7f1a6838efa4183e08fe3607359d1259272af9d4716f65e1a7b5921f78fd5a3c6a610a1a81612295565b7f1a6838efa4183e08fe3607359d1259272af9d4716f65e1a7b5921f78fd5a3c6a61201781612295565b610a1a82612d45565b7f1a6838efa4183e08fe3607359d1259272af9d4716f65e1a7b5921f78fd5a3c6a61204a81612295565b6000612057836000610cdb565b6000908152600c60205260409020600381018054600163ffffffff6c0100000000000000000000000080840482169290920116027fffffffffffffffffffffffffffffffff00000000ffffffffffffffffffffffff90911617905542600290910155505050565b60006120c9600f5490565b821115612158576040517f08c379a000000000000000000000000000000000000000000000000000000000815260206004820152602860248201527f534252544d616e616765723a3a20526f756e644964206964206973206f75742060448201527f6f662072616e67650000000000000000000000000000000000000000000000006064820152608401610b18565b506000908152600e602052604090205490565b80546001019055565b600061217f600f5490565b82111561220e576040517f08c379a000000000000000000000000000000000000000000000000000000000815260206004820152602860248201527f534252544d616e616765723a3a20526f756e644964206964206973206f75742060448201527f6f662072616e67650000000000000000000000000000000000000000000000006064820152608401610b18565b6000828152600e6020908152604091829020825191820190925260019091015467ffffffffffffffff169081905243101561224b57506000919050565b6000828152600e6020908152604091829020825191820190925260029091015467ffffffffffffffff16815261228090612dd8565b1561228d57506002919050565b506001919050565b61229f8133612e09565b50565b60008160ff16116122b257600080fd5b600d805460ff8381167fffffffffffffffffffffffffffffffffffffffffffffffffffffffffffffff0083168117909355604080519190921680825260208201939093527fe071856e43d0f28c9d19562cf66b632f509b1c4c6c3beeabe766ac902e63db8591015b60405180910390a15050565b60608160000361236957505060408051808201909152600181527f3000000000000000000000000000000000000000000000000000000000000000602082015290565b8160005b8115612393578061237d81614821565b915061238c9050600a83614ffb565b915061236d565b60008167ffffffffffffffff8111156123ae576123ae613c6f565b6040519080825280601f01601f1916602001820160405280156123d8576020820181803683370190505b5090505b8415611fbb576123ed60018361500f565b91506123fa600a86614b10565b6124059060306148b7565b60f81b81838151811061241a5761241a614504565b60200101907effffffffffffffffffffffffffffffffffffffffffffffffffffffffffffff1916908160001a905350612454600a86614ffb565b94506123dc565b600061246682610f0d565b905061247481600084612edb565b73ffffffffffffffffffffffffffffffffffffffff811660009081526004602052604081208054600192906124aa90849061500f565b909155505060008281526003602052604080822080547fffffffffffffffffffffffff000000000000000000000000000000000000000016905551839173ffffffffffffffffffffffffffffffffffffffff8416917f696de425f79f4a40bc6d2122ca50507f0efbeabbff86a84871b7196ab8ea8df79190a35050565b6000818152600c6020526040812080547fffffffffffffffffffffffff000000000000000000000000000000000000000016815560018101829055600281018290556003810180547fffffffffffffffffffffffffffffffff0000000000000000000000000000000016905590611ebe6004830182613a76565b60408051602081019091526000808252606091905b835181101561260f57818482815181106125d2576125d2614504565b60200260200101516040516020016125eb929190615026565b6040516020818303038152906040529150808061260790614821565b9150506125b6565b5092915050565b6060610a5573ffffffffffffffffffffffffffffffffffffffff83166014612f25565b61264284610f99565b60000361273457600083815260096020526040902060010154612696905b600090815260096020908152604080832073ffffffffffffffffffffffffffffffffffffffff8a16845290915290205460ff1690565b612722576040517f08c379a000000000000000000000000000000000000000000000000000000000815260206004820152603460248201527f534252543a2066726f6d2061646472657373206973206e6f742061206d656d6260448201527f6572206f66207468652041646d696e20726f6c650000000000000000000000006064820152608401610b18565b61272f8585858585613168565b61292d565b600083815260096020908152604080832073ffffffffffffffffffffffffffffffffffffffff8816845290915290205460ff166128295760008381526009602052604090206001015461278690612660565b612812576040517f08c379a000000000000000000000000000000000000000000000000000000000815260206004820152603460248201527f534252543a2066726f6d2061646472657373206973206e6f742061206d656d6260448201527f6572206f66207468652061646d696e20726f6c650000000000000000000000006064820152608401610b18565b61281c83856131aa565b61272f85858585856132f1565b600083815260096020908152604080832073ffffffffffffffffffffffffffffffffffffffff8816845290915290205460ff161561292d57600083815260096020908152604080832073ffffffffffffffffffffffffffffffffffffffff8916845290915290205460ff16612920576040517f08c379a000000000000000000000000000000000000000000000000000000000815260206004820152602e60248201527f534252543a2066726f6d2061646472657373206973206e6f742061206d656d6260448201527f6572206f662074686520726f6c650000000000000000000000000000000000006064820152608401610b18565b61292d85858585856132f1565b5050505050565b60008061294083613422565b6000848152600c6020526040812060040180549293509160649061296590859061500f565b61296f919061487a565b95945050505050565b60008061298484613422565b6000858152600c60205260408120919250600490910190825b82548110156129f057858382815481106129b9576129b9614504565b906000526020600020906003020160000154036129de576129db6064836148b7565b91505b806129e881614821565b91505061299d565b5095945050505050565b600083604051602001612a0d919061507d565b604051602081830303815290604052805190602001209050600083604051602001612a38919061507d565b604051602081830303815290604052805190602001209050612a5a8286613521565b612a648185613521565b612a6e828261353c565b60005b8351811015612bab57612a9c848281518110612a8f57612a8f614504565b6020026020010151610f99565b600003612b0457612aff33858381518110612ab957612ab9614504565b60200260200101518560006040518060400160405280600f81526020017f496e697469616c204d656d656265720000000000000000000000000000000000815250613168565b612b83565b612b6033858381518110612b1a57612b1a614504565b60200260200101518560006040518060400160405280600e81526020017f496e697469616c204d656d6265720000000000000000000000000000000000008152506132f1565b612b8383858381518110612b7657612b76614504565b60200260200101516131aa565b612b9982858381518110612b7657612b76614504565b80612ba381614821565b915050612a71565b507f5cdd56de5f35f5932b09b35714958d501d1b8bb32882c5683a8b0a929b08318c8585848487604051612be3959493929190615099565b60405180910390a15050505050565b60608151600003612c1157505060408051602081019091526000815290565b60006040518060600160405280604081526020016153b36040913990506000600384516002612c4091906148b7565b612c4a9190614ffb565b612c5590600461487a565b67ffffffffffffffff811115612c6d57612c6d613c6f565b6040519080825280601f01601f191660200182016040528015612c97576020820181803683370190505b509050600182016020820185865187015b80821015612d03576003820191508151603f8160121c168501518453600184019350603f81600c1c168501518453600184019350603f8160061c168501518453600184019350603f8116850151845350600183019250612ca8565b5050600386510660018114612d1f5760028114612d3257612d3a565b603d6001830353603d6002830353612d3a565b603d60018303535b509195945050505050565b60008167ffffffffffffffff1611612d5c57600080fd5b600d805467ffffffffffffffff8381166101008181027fffffffffffffffffffffffffffffffffffffffffffffff0000000000000000ff85161790945560408051949093049091168084526020840191909152917f53ee6e6d8fa8b1f1e50607634f3bd08c1d7069452c5e7fefee01c025e087b67f910161231a565b6000612dee825167ffffffffffffffff16151590565b8015610a55575050514367ffffffffffffffff909116111590565b600082815260096020908152604080832073ffffffffffffffffffffffffffffffffffffffff8516845290915290205460ff16610a1a57612e618173ffffffffffffffffffffffffffffffffffffffff166014612f25565b612e6c836020612f25565b604051602001612e7d929190615128565b604080517fffffffffffffffffffffffffffffffffffffffffffffffffffffffffffffffe0818403018152908290527f08c379a0000000000000000000000000000000000000000000000000000000008252610b1891600401613b51565b73ffffffffffffffffffffffffffffffffffffffff8316612f0057611ebe8282613587565b73ffffffffffffffffffffffffffffffffffffffff8216611ebe57611ebe838261360a565b60606000612f3483600261487a565b612f3f9060026148b7565b67ffffffffffffffff811115612f5757612f57613c6f565b6040519080825280601f01601f191660200182016040528015612f81576020820181803683370190505b5090507f300000000000000000000000000000000000000000000000000000000000000081600081518110612fb857612fb8614504565b60200101907effffffffffffffffffffffffffffffffffffffffffffffffffffffffffffff1916908160001a9053507f78000000000000000000000000000000000000000000000000000000000000008160018151811061301b5761301b614504565b60200101907effffffffffffffffffffffffffffffffffffffffffffffffffffffffffffff1916908160001a905350600061305784600261487a565b6130629060016148b7565b90505b60018111156130ff577f303132333435363738396162636465660000000000000000000000000000000085600f16601081106130a3576130a3614504565b1a60f81b8282815181106130b9576130b9614504565b60200101907effffffffffffffffffffffffffffffffffffffffffffffffffffffffffffff1916908160001a90535060049490941c936130f8816151a9565b9050613065565b508315611943576040517f08c379a000000000000000000000000000000000000000000000000000000000815260206004820181905260248201527f537472696e67733a20686578206c656e67746820696e73756666696369656e746044820152606401610b18565b600061317360085490565b61317e9060016148b7565b905061318a8582613774565b613198818787878787613942565b6131a284866131aa565b505050505050565b600082815260096020908152604080832073ffffffffffffffffffffffffffffffffffffffff8516845290915290205460ff16610a1a57600082815260096020818152604080842073ffffffffffffffffffffffffffffffffffffffff8616855280835290842080547fffffffffffffffffffffffffffffffffffffffffffffffffffffffffffffff00166001179055928590525261324f9060030180546001019055565b604051339073ffffffffffffffffffffffffffffffffffffffff83169084907f2f8788117e7eff1d82e926ec794901d17c78024a50270940304540a733656f0d90600090a473ffffffffffffffffffffffffffffffffffffffff81166000908152600a602052604090206132c283610daa565b815460018101835560009283526020909220909101906132e29082615224565b50610a1a600b80546001019055565b60006132fe856000610cdb565b6040805160608101825286815273ffffffffffffffffffffffffffffffffffffffff8981166020808401918252428486018181526000888152600c8452878120600481018054600180820183559184529590922088516003968702909101908155955186830180547fffffffffffffffffffffffff0000000000000000000000000000000000000000169190981617909655905160029485015592840155820180547fffffffffffffffffffffffffffffffffffffffffffffffffffffffff00000000811663ffffffff918216909301169190911790559151929350917fd2ac6bdbbe2ec2d474283341a558d0a723bdf538901ade059e0f4264f357c2e39061341090879089908c908c908a9061533e565b60405180910390a15050505050505050565b6000818152600c6020526040812060040180547fffffffffffffffffffffffffffffffffffffffffffffffffffffffffffdb16004201908303613469575060009392505050565b81546000905b808210156134cc5760006134838383613a5b565b90508385828154811061349857613498614504565b90600052602060002090600302016002015411156134b8578091506134c6565b6134c38160016148b7565b92505b5061346f565b600082118015613508575082846134e460018561500f565b815481106134f4576134f4614504565b906000526020600020906003020160020154145b1561351857611d7660018361500f565b50949350505050565b6000828152600960205260409020600201611ebe8282615224565b600082815260096020526040808220600101805490849055905190918391839186917fbd79b86ffe0ab8e8776151514217cd7cacd52c909f66475c3af44e129f0b00ff9190a4505050565b6008805460008381526007602052604081208290556001820183559182527ff3f7a9fe364faab93b216da50a3214154f22a0a2b415b23a84c8169e8b636ee3018290556135d383610f99565b73ffffffffffffffffffffffffffffffffffffffff9093166000908152600560209081526040808320958352949052929092205550565b60085460009061361c9060019061500f565b905060006008828154811061363357613633614504565b90600052602060002001549050600060076000858152602001908152602001600020549050816008828154811061366c5761366c614504565b60009182526020808320909101929092558381526007909152604080822083905585825281205560088054806136a4576136a4615383565b60019003818190600052602060002001600090559055600060016136c787610f99565b6136d1919061500f565b6000868152600660205260409020549091508082146137315773ffffffffffffffffffffffffffffffffffffffff871660009081526005602090815260408083208584528252808320548484528184208190558352600690915290208190555b50600094855260066020908152604080872087905573ffffffffffffffffffffffffffffffffffffffff9097168652600581528686209186525250505090812055565b73ffffffffffffffffffffffffffffffffffffffff82166137f1576040517f08c379a000000000000000000000000000000000000000000000000000000000815260206004820152601260248201527f5342543a20207a65726f206164647265737300000000000000000000000000006044820152606401610b18565b60008181526003602052604090205473ffffffffffffffffffffffffffffffffffffffff161561387d576040517f08c379a000000000000000000000000000000000000000000000000000000000815260206004820152601960248201527f5342543a20746f6b656e20616c7265616479206d696e746564000000000000006044820152606401610b18565b61388960008383612edb565b73ffffffffffffffffffffffffffffffffffffffff821660009081526004602052604081208054600192906138bf9084906148b7565b909155505060008181526003602052604080822080547fffffffffffffffffffffffff00000000000000000000000000000000000000001673ffffffffffffffffffffffffffffffffffffffff861690811790915590518392907f9d228d69b5fdb8d273a2336f8fb8612d039631024ea9bf09c424a9503aa078f0908290a45050565b6040805160608101825284815273ffffffffffffffffffffffffffffffffffffffff87811660208084018281524285870181815260008e8152600c855288812080547fffffffffffffffffffffffff000000000000000000000000000000000000000090811690971781556001808201859055600280830195909555600380830180547fffffffffffffffffffffffffffffffffffffffffffffffffffffffff0000000016831790556004830180548084018255908552979093208a519790930290920195865593519085018054909616961695909517909355925191015591519091907fd2ac6bdbbe2ec2d474283341a558d0a723bdf538901ade059e0f4264f357c2e39061341090869088908b908b90899061533e565b6000613a6a6002848418614ffb565b611943908484166148b7565b508054600082556003029060005260206000209081019061229f91905b80821115613ad75760008082556001820180547fffffffffffffffffffffffff00000000000000000000000000000000000000001690556002820155600301613a93565b5090565b60005b83811015613af6578181015183820152602001613ade565b83811115611dcc5750506000910152565b60008151808452613b1f816020860160208601613adb565b601f017fffffffffffffffffffffffffffffffffffffffffffffffffffffffffffffffe0169290920160200192915050565b6020815260006119436020830184613b07565b600060208284031215613b7657600080fd5b5035919050565b600060208284031215613b8f57600080fd5b813560ff8116811461194357600080fd5b60008060408385031215613bb357600080fd5b50508035926020909101359150565b803567ffffffffffffffff811681146109e257600080fd5b60008060408385031215613bed57600080fd5b82359150613bfd60208401613bc2565b90509250929050565b803573ffffffffffffffffffffffffffffffffffffffff811681146109e257600080fd5b600060208284031215613c3c57600080fd5b61194382613c06565b60008060408385031215613c5857600080fd5b613c6183613c06565b946020939093013593505050565b7f4e487b7100000000000000000000000000000000000000000000000000000000600052604160045260246000fd5b604051601f82017fffffffffffffffffffffffffffffffffffffffffffffffffffffffffffffffe016810167ffffffffffffffff81118282101715613ce557613ce5613c6f565b604052919050565b600067ffffffffffffffff821115613d0757613d07613c6f565b5060051b60200190565b600082601f830112613d2257600080fd5b813567ffffffffffffffff811115613d3c57613d3c613c6f565b613d6d60207fffffffffffffffffffffffffffffffffffffffffffffffffffffffffffffffe0601f84011601613c9e565b818152846020838601011115613d8257600080fd5b816020850160208301376000918101602001919091529392505050565b600082601f830112613db057600080fd5b81356020613dc5613dc083613ced565b613c9e565b82815260059290921b84018101918181019086841115613de457600080fd5b8286015b84811015613e2457803567ffffffffffffffff811115613e085760008081fd5b613e168986838b0101613d11565b845250918301918301613de8565b509695505050505050565b60008060008060808587031215613e4557600080fd5b613e4e85613c06565b9350613e5c60208601613c06565b9250604085013567ffffffffffffffff80821115613e7957600080fd5b613e8588838901613d9f565b93506060870135915080821115613e9b57600080fd5b50613ea887828801613d11565b91505092959194509250565b6000602080830181845280855180835260408601915060408160051b870101925083870160005b82811015613f27577fffffffffffffffffffffffffffffffffffffffffffffffffffffffffffffffc0888603018452613f15858351613b07565b94509285019290850190600101613edb565b5092979650505050505050565b60008083601f840112613f4657600080fd5b50813567ffffffffffffffff811115613f5e57600080fd5b6020830191508360208260051b8501011115613f7957600080fd5b9250929050565b600080600080600060608688031215613f9857600080fd5b85359450602086013567ffffffffffffffff80821115613fb757600080fd5b613fc389838a01613f34565b90965094506040880135915080821115613fdc57600080fd5b50613fe988828901613f34565b969995985093965092949392505050565b6000806040838503121561400d57600080fd5b82359150613bfd60208401613c06565b6000806000806000806000806000806101408b8d03121561403d57600080fd5b8a35995061404d60208c01613c06565b985060408b013567ffffffffffffffff8082111561406a57600080fd5b6140768e838f01613d9f565b995060608d013591508082111561408c57600080fd5b506140998d828e01613d11565b97505060808b013595506140af60a08c01613c06565b945060c08b0135935060e08b013592506101008b013591506101208b013590509295989b9194979a5092959850565b600080600080608085870312156140f457600080fd5b5050823594602084013594506040840135936060013592509050565b60008060006060848603121561412557600080fd5b833567ffffffffffffffff8082111561413d57600080fd5b61414987838801613d11565b945060209150818601358181111561416057600080fd5b61416c88828901613d11565b94505060408601358181111561418157600080fd5b86019050601f8101871361419457600080fd5b80356141a2613dc082613ced565b81815260059190911b820183019083810190898311156141c157600080fd5b928401925b828410156141e6576141d784613c06565b825292840192908401906141c6565b80955050505050509250925092565b7f4e487b7100000000000000000000000000000000000000000000000000000000600052602160045260246000fd5b602081016002831061425f577f4e487b7100000000000000000000000000000000000000000000000000000000600052602160045260246000fd5b91905290565b60006020828403121561427757600080fd5b61194382613bc2565b600181811c9082168061429457607f821691505b6020821081036142cd577f4e487b7100000000000000000000000000000000000000000000000000000000600052602260045260246000fd5b50919050565b600081516142e5818560208601613adb565b9290920192915050565b7f3c7465787420783d2231372220793d223138322220636c6173733d22736d616c81527f6c222066696c6c3d22776869746522203e23200000000000000000000000000060208201526000835161434d816033850160208801613adb565b80830190507f3c2f746578743e000000000000000000000000000000000000000000000000008060338301527f3c7465787420783d223138302220793d223137302220636c6173733d2274696e603a8301527f79222066696c6c3d22776869746522203e55706461746564207469656d737461605a8301527f6d703a2000000000000000000000000000000000000000000000000000000000607a83015284516143fe81607e850160208901613adb565b607e9201918201527f3c7374796c653e2e737667426f6479207b666f6e742d66616d696c793a20224360858201527f6f7572696572204e657722207d202e74696e79207b666f6e742d73697a653a3660a58201527f70783b207d202e736d616c6c207b666f6e742d73697a653a20313070783b7d3c60c58201527f2f7374796c653e0000000000000000000000000000000000000000000000000060e582015260ec01949350505050565b7f4e487b7100000000000000000000000000000000000000000000000000000000600052601160045260246000fd5b600067ffffffffffffffff8083168185168083038211156144fb576144fb6144a9565b01949350505050565b7f4e487b7100000000000000000000000000000000000000000000000000000000600052603260045260246000fd5b7f203c7465787420783d2232302220793d2233302220636c6173733d2274696e7981527f222066696c6c3d22776869746522203e4e6f6e70726f6669742044414f3c2f7460208201527f6578743e0000000000000000000000000000000000000000000000000000000060408201527f3c7465787420783d2232302220793d2234302220636c6173733d22736d616c6c60448201527f222066696c6c3d22776869746522203e00000000000000000000000000000000606482015260008551614603816074850160208a01613adb565b7f3c2f746578743e000000000000000000000000000000000000000000000000006074918401918201527f3c7465787420783d2232302220793d2235302220636c6173733d2274696e7922607b8201527f2066696c6c3d22776869746522203e41636365707465642062793a2000000000609b820152855161468c8160b7840160208a01613adb565b611b0d61472561479d61474e61472561471f6146d060b7888a01017f3c2f746578743e00000000000000000000000000000000000000000000000000815260070190565b7f203c7465787420783d2232302220793d2236302220636c6173733d2274696e7981527f222066696c6c3d22776869746522203e526f6c65733a20000000000000000000602082015260370190565b8b6142d3565b7f3c2f746578743e00000000000000000000000000000000000000000000000000815260070190565b7f203c7465787420783d2232302220793d2237302220636c6173733d2274696e7981527f222066696c6c3d22776869746522203e5374617475733a200000000000000000602082015260380190565b876142d3565b6000602082840312156147b557600080fd5b5051919050565b60008083357fffffffffffffffffffffffffffffffffffffffffffffffffffffffffffffffe18436030181126147f157600080fd5b83018035915067ffffffffffffffff82111561480c57600080fd5b602001915036819003821315613f7957600080fd5b60007fffffffffffffffffffffffffffffffffffffffffffffffffffffffffffffffff8203614852576148526144a9565b5060010190565b60006020828403121561486b57600080fd5b81516002811061194357600080fd5b6000817fffffffffffffffffffffffffffffffffffffffffffffffffffffffffffffffff04831182151516156148b2576148b26144a9565b500290565b600082198211156148ca576148ca6144a9565b500190565b600084516148e1818460208901613adb565b8451908301906148f5818360208901613adb565b8451910190614908818360208801613adb565b0195945050505050565b7f203c7465787420783d2232302220793d2239302220636c6173733d2274696e7981527f222066696c6c3d22776869746522203e52657075746174696f6e3a200000000060208201526000855161497081603c850160208a01613adb565b80830190507f3c2f746578743e0000000000000000000000000000000000000000000000000080603c8301527f3c7465787420783d2232302220793d223130302220636c6173733d2274696e7960438301527f222066696c6c3d22776869746522203e4576616c756174696f6e3a2000000000606383015286516149fb81607f850160208b01613adb565b607f9201918201527f3c7465787420783d2232302220793d223131302220636c6173733d2274696e7960868201527f222066696c6c3d22776869746522203e566f74696e673a20000000000000000060a6820152611904614725614adb614a668260be86018a6142d3565b7f3c7465787420783d2232302220793d223132302220636c6173733d2274696e7981527f222066696c6c3d22776869746522203e50726f706f73616c205375626d69737360208201527f696f6e3a20000000000000000000000000000000000000000000000000000000604082015260450190565b866142d3565b7f4e487b7100000000000000000000000000000000000000000000000000000000600052601260045260246000fd5b600082614b1f57614b1f614ae1565b500690565b7f3c646566733e203c6c696e6561724772616469656e742069643d22677261646981527f656e74222078313d223025222079313d223025222078323d2230222079323d2260208201527f31303025223e000000000000000000000000000000000000000000000000000060408201527f203c73746f70206f66667365743d22302522207374796c653d2273746f702d6360468201527f6f6c6f723a68736c280000000000000000000000000000000000000000000000606682015260008351614bf481606f850160208801613adb565b7f2c20000000000000000000000000000000000000000000000000000000000000606f918401918201528351614c31816071840160208801613adb565b7f252c20353025293b73746f702d6f7061636974793a3122202f3e000000000000910160718101919091527f203c73746f70206f66667365743d223130302522207374796c653d2273746f70608b8201527f2d636f6c6f723a6c696768743b22202f3e00000000000000000000000000000060ab8201527f203c2f6c696e6561724772616469656e743e000000000000000000000000000060bc82015261296f614e69614dce614d59614d0a60ce86017f203c2f646566733e000000000000000000000000000000000000000000000000815260080190565b7f203c726563742077696474683d2233303022206865696768743d22313835222081527f72783d223130222066696c6c3d2275726c28236772616469656e742922202f3e602082015260400190565b7f203c726563742077696474683d2233303022206865696768743d22313835222081527f72783d22313022207374796c653d2266696c6c3a20626c61636b22206f70616360208201527f6974793d22302e33222f3e0000000000000000000000000000000000000000006040820152604b0190565b7f203c7265637420783d22352220793d2235222077696474683d2232393022206881527f65696768743d22313735222072783d223130222066696c6c3d227472616e737060208201527f6172656e7422207374726f6b653d22776869746522206f7061636974793d223060408201527f2e3822202f3e0000000000000000000000000000000000000000000000000000606082015260660190565b7f203c7265637420783d2231342220793d22313730222072783d2233222077696481527f74683d22343222206865696768743d223133222066696c6c3d22626c61636b2260208201527f20202f3e00000000000000000000000000000000000000000000000000000000604082015260440190565b7f646174613a696d6167652f7376672b786d6c3b6261736536342c00000000000081527f3c73766720636c6173733d22737667426f6479222077696474683d2233303022601a8201527f206865696768743d22313835222076696577426f783d22302030203330302031603a8201527f38352220786d6c6e733d22687474703a2f2f7777772e77332e6f72672f323030605a8201527f302f737667223e00000000000000000000000000000000000000000000000000607a82015260008351614fae816081850160208801613adb565b835190830190614fc5816081840160208801613adb565b7f3c2f7376673e000000000000000000000000000000000000000000000000000060819290910191820152608701949350505050565b60008261500a5761500a614ae1565b500490565b600082821015615021576150216144a9565b500390565b60008351615038818460208801613adb565b83519083019061504c818360208801613adb565b7f20000000000000000000000000000000000000000000000000000000000000009101908152600101949350505050565b6000825161508f818460208701613adb565b9190910192915050565b60a0815260006150ac60a0830188613b07565b6020838203818501526150bf8289613b07565b60408501889052606085018790528481036080860152855180825282870193509082019060005b8181101561511857845173ffffffffffffffffffffffffffffffffffffffff16835293830193918301916001016150e6565b50909a9950505050505050505050565b7f416363657373436f6e74726f6c3a206163636f756e7420000000000000000000815260008351615160816017850160208801613adb565b7f206973206d697373696e6720726f6c6520000000000000000000000000000000601791840191820152835161519d816028840160208801613adb565b01602801949350505050565b6000816151b8576151b86144a9565b507fffffffffffffffffffffffffffffffffffffffffffffffffffffffffffffffff0190565b601f821115611ebe57600081815260208120601f850160051c810160208610156152055750805b601f850160051c820191505b818110156131a257828155600101615211565b815167ffffffffffffffff81111561523e5761523e613c6f565b6152528161524c8454614280565b846151de565b602080601f8311600181146152a5576000841561526f5750858301515b7fffffffffffffffffffffffffffffffffffffffffffffffffffffffffffffffff600386901b1c1916600185901b1785556131a2565b6000858152602081207fffffffffffffffffffffffffffffffffffffffffffffffffffffffffffffffe08616915b828110156152f2578886015182559484019460019091019084016152d3565b508582101561532e57878501517fffffffffffffffffffffffffffffffffffffffffffffffffffffffffffffffff600388901b60f8161c191681555b5050505050600190811b01905550565b858152846020820152600073ffffffffffffffffffffffffffffffffffffffff808616604084015280851660608401525060a0608083015261190460a0830184613b07565b7f4e487b7100000000000000000000000000000000000000000000000000000000600052603160045260246000fdfe4142434445464748494a4b4c4d4e4f505152535455565758595a6162636465666768696a6b6c6d6e6f707172737475767778797a303132333435363738392b2fa264697066735822122065791671fc00e2270aed5e4b6ce03c1aa7a0fb11cd64fd2c52af3261205f834164736f6c634300080f0033d2ac6bdbbe2ec2d474283341a558d0a723bdf538901ade059e0f4264f357c2e3",
    "linkReferences": {}
  },
  "methodIdentifiers": {
    "ACTIVE_STATUS_VALID_DURATION()": "43cb5917",
    "EVALUATION_INITIAL_WEIGHT()": "7b83e6fb",
    "GOVERNOR()": "6dc0ae22",
    "PROPOSAL_INIRIAL_WEIGHT()": "235c6840",
    "REPUTAIION_INITIAL_WEIGHT()": "cb9b6d63",
    "REPUTATION_VALID_DURATION()": "bfcb71f8",
    "VOTING_INITIAL_WEIGHT()": "06738ef0",
    "addNewRole(string,string,address[])": "cc383b38",
    "balanceOf(address)": "70a08231",
    "burnSBRT(uint256)": "72965cbc",
    "evaluate(uint256,address[],string[])": "8b118f94",
    "evaluationPeriod()": "7b79bd15",
    "genBackgroundSVG(uint256)": "c7219ec0",
    "genTextBottomSVG(uint256,uint256)": "217056be",
    "genTextMidSVG(uint256,uint256,uint256,uint256)": "c4c775e4",
    "genTextSVG(uint256,address,string[],string,uint256,address,uint256,uint256,uint256,uint256)": "b8ab0cbe",
    "genTextTopSVG(address,address,string[],string)": "73e659a6",
    "getAttribute(uint256)": "493fe80f",
    "getDataURI(uint256,address,string[],string,uint256,address,uint256,uint256,uint256,uint256)": "d3ac5281",
    "getGrantedRoles(address)": "75592546",
    "getMemberCount()": "997072f7",
    "getMemberRoleCount(address)": "5c2786a5",
    "getMemberStatus(address)": "dde8535f",
    "getRoleAdmin(bytes32)": "248a9ca3",
    "getRoleMemberCount(bytes32)": "ca15c873",
    "getRoleName(bytes32)": "4ebb7f33",
    "getRoundDomainId(uint256)": "fa6b6b0f",
    "getVotes(address)": "9ab24eb0",
    "getVotesInDomain(address,bytes32)": "a8bd3bac",
    "hasRole(bytes32,address)": "91d14854",
    "incrementScount(address)": "f9c6a02c",
    "incrementVcount(address)": "276480ae",
    "isEvaluator(bytes32,address)": "a8207542",
    "maxEvaluationLimit()": "e3c37d06",
    "name()": "06fdde03",
    "ownerOf(uint256)": "6352211e",
    "revokeAllRoles(address)": "f0993d4f",
    "revokeRole(bytes32,address)": "d547741f",
    "roleExists(bytes32)": "b41406f9",
    "setEvaluationLimit(uint8)": "1463b4e9",
    "setEvaluationPeriod(uint64)": "f31561be",
    "setEvaluationRound(bytes32,uint64)": "2648162f",
    "stateOf(uint256)": "131a7e24",
    "symbol()": "95d89b41",
    "tokenByIndex(uint256)": "4f6ccce7",
    "tokenOfOwnerByIndex(address,uint256)": "2f745c59",
    "tokenURI(uint256)": "c87b56dd",
    "totalSupply()": "18160ddd"
  },
  "id": 16
}